{
  "_format": "hh-sol-artifact-1",
  "contractName": "InfoContract",
  "sourceName": "contracts/InfoContract.sol",
  "abi": [
    {
      "anonymous": false,
      "inputs": [
        {
          "indexed": false,
          "internalType": "string",
          "name": "name",
          "type": "string"
        },
        {
          "indexed": false,
          "internalType": "uint256",
          "name": "",
          "type": "uint256"
        }
      ],
      "name": "Instruction",
      "type": "event"
    },
    {
      "inputs": [],
      "name": "getInfo",
      "outputs": [
        {
          "internalType": "string",
          "name": "",
          "type": "string"
        },
        {
          "internalType": "uint256",
          "name": "",
          "type": "uint256"
        }
      ],
      "stateMutability": "view",
      "type": "function"
    },
    {
      "inputs": [],
      "name": "getInfo2",
      "outputs": [
        {
          "internalType": "uint256",
          "name": "",
          "type": "uint256"
        }
      ],
      "stateMutability": "view",
      "type": "function"
    },
    {
      "inputs": [],
      "name": "sayHi",
      "outputs": [
        {
          "internalType": "string",
          "name": "",
          "type": "string"
        }
      ],
      "stateMutability": "view",
      "type": "function"
    },
    {
      "inputs": [
        {
          "internalType": "string",
          "name": "_name",
          "type": "string"
        },
        {
          "internalType": "uint256",
          "name": "_age",
          "type": "uint256"
        }
      ],
      "name": "setInfo",
      "outputs": [],
      "stateMutability": "nonpayable",
      "type": "function"
    }
  ],
  "bytecode": "0x60806040526040518060400160405280600281526020017f37370000000000000000000000000000000000000000000000000000000000008152506000908161004891906102af565b506001805534801561005957600080fd5b50610381565b600081519050919050565b7f4e487b7100000000000000000000000000000000000000000000000000000000600052604160045260246000fd5b7f4e487b7100000000000000000000000000000000000000000000000000000000600052602260045260246000fd5b600060028204905060018216806100e057607f821691505b6020821081036100f3576100f2610099565b5b50919050565b60008190508160005260206000209050919050565b60006020601f8301049050919050565b600082821b905092915050565b60006008830261015b7fffffffffffffffffffffffffffffffffffffffffffffffffffffffffffffffff8261011e565b610165868361011e565b95508019841693508086168417925050509392505050565b6000819050919050565b6000819050919050565b60006101ac6101a76101a28461017d565b610187565b61017d565b9050919050565b6000819050919050565b6101c683610191565b6101da6101d2826101b3565b84845461012b565b825550505050565b600090565b6101ef6101e2565b6101fa8184846101bd565b505050565b5b8181101561021e576102136000826101e7565b600181019050610200565b5050565b601f82111561026357610234816100f9565b61023d8461010e565b8101602085101561024c578190505b6102606102588561010e565b8301826101ff565b50505b505050565b600082821c905092915050565b600061028660001984600802610268565b1980831691505092915050565b600061029f8383610275565b9150826002028217905092915050565b6102b88261005f565b67ffffffffffffffff8111156102d1576102d061006a565b5b6102db82546100c8565b6102e6828285610222565b600060209050601f8311600181146103195760008415610307578287015190505b6103118582610293565b865550610379565b601f198416610327866100f9565b60005b8281101561034f5784890151825560018201915060208501945060208101905061032a565b8683101561036c5784890151610368601f891682610275565b8355505b6001600288020188555050505b505050505050565b610800806103906000396000f3fe608060405234801561001057600080fd5b506004361061004c5760003560e01c80630c49c36c146100515780635a9b0b891461006f5780638262963b1461008e578063be84f944146100aa575b600080fd5b6100596100c8565b6040516100669190610295565b60405180910390f35b61007761010b565b6040516100859291906102d0565b60405180910390f35b6100a860048036038101906100a39190610475565b6101a7565b005b6100b26101fb565b6040516100bf91906104d1565b60405180910390f35b606060006040518060400160405280600281526020017f486900000000000000000000000000000000000000000000000000000000000081525090508091505090565b606060008060015481805461011f9061051b565b80601f016020809104026020016040519081016040528092919081815260200182805461014b9061051b565b80156101985780601f1061016d57610100808354040283529160200191610198565b820191906000526020600020905b81548152906001019060200180831161017b57829003601f168201915b50505050509150915091509091565b81600090816101b691906106f8565b50806001819055507f177e773f7d8482626629ed1444e14c85ee65483e9dcfa04e8171e03232fb17a082826040516101ef9291906102d0565b60405180910390a15050565b60006103e8905090565b600081519050919050565b600082825260208201905092915050565b60005b8381101561023f578082015181840152602081019050610224565b60008484015250505050565b6000601f19601f8301169050919050565b600061026782610205565b6102718185610210565b9350610281818560208601610221565b61028a8161024b565b840191505092915050565b600060208201905081810360008301526102af818461025c565b905092915050565b6000819050919050565b6102ca816102b7565b82525050565b600060408201905081810360008301526102ea818561025c565b90506102f960208301846102c1565b9392505050565b6000604051905090565b600080fd5b600080fd5b600080fd5b600080fd5b7f4e487b7100000000000000000000000000000000000000000000000000000000600052604160045260246000fd5b6103568261024b565b810181811067ffffffffffffffff821117156103755761037461031e565b5b80604052505050565b6000610388610300565b9050610394828261034d565b919050565b600067ffffffffffffffff8211156103b4576103b361031e565b5b6103bd8261024b565b9050602081019050919050565b82818337600083830152505050565b60006103ec6103e784610399565b61037e565b90508281526020810184848401111561040857610407610319565b5b6104138482856103ca565b509392505050565b600082601f8301126104305761042f610314565b5b81356104408482602086016103d9565b91505092915050565b610452816102b7565b811461045d57600080fd5b50565b60008135905061046f81610449565b92915050565b6000806040838503121561048c5761048b61030a565b5b600083013567ffffffffffffffff8111156104aa576104a961030f565b5b6104b68582860161041b565b92505060206104c785828601610460565b9150509250929050565b60006020820190506104e660008301846102c1565b92915050565b7f4e487b7100000000000000000000000000000000000000000000000000000000600052602260045260246000fd5b6000600282049050600182168061053357607f821691505b602082108103610546576105456104ec565b5b50919050565b60008190508160005260206000209050919050565b60006020601f8301049050919050565b600082821b905092915050565b6000600883026105ae7fffffffffffffffffffffffffffffffffffffffffffffffffffffffffffffffff82610571565b6105b88683610571565b95508019841693508086168417925050509392505050565b6000819050919050565b60006105f56105f06105eb846102b7565b6105d0565b6102b7565b9050919050565b6000819050919050565b61060f836105da565b61062361061b826105fc565b84845461057e565b825550505050565b600090565b61063861062b565b610643818484610606565b505050565b5b818110156106675761065c600082610630565b600181019050610649565b5050565b601f8211156106ac5761067d8161054c565b61068684610561565b81016020851015610695578190505b6106a96106a185610561565b830182610648565b50505b505050565b600082821c905092915050565b60006106cf600019846008026106b1565b1980831691505092915050565b60006106e883836106be565b9150826002028217905092915050565b61070182610205565b67ffffffffffffffff81111561071a5761071961031e565b5b610724825461051b565b61072f82828561066b565b600060209050601f8311600181146107625760008415610750578287015190505b61075a85826106dc565b8655506107c2565b601f1984166107708661054c565b60005b8281101561079857848901518255600182019150602085019450602081019050610773565b868310156107b557848901516107b1601f8916826106be565b8355505b6001600288020188555050505b50505050505056fea26469706673582212204816b171909fa04f29ef19a6c8609dd941c5d9f5dc8c82572503f3967fbe92f864736f6c634300081c0033",
  "linkReferences": {},
  "deployedLinkReferences": {}
}