{
  "_format": "hh-sol-artifact-1",
  "contractName": "BlogShop",
  "sourceName": "contracts/BlogShop.sol",
  "abi": [
    {
      "inputs": [
        {
          "internalType": "contract JTCoin",
          "name": "_token",
          "type": "address"
        }
      ],
      "stateMutability": "nonpayable",
      "type": "constructor"
    },
    {
      "anonymous": false,
      "inputs": [
        {
          "indexed": true,
          "internalType": "uint256",
          "name": "articleId",
          "type": "uint256"
        },
        {
          "indexed": false,
          "internalType": "uint256",
          "name": "price",
          "type": "uint256"
        },
        {
          "indexed": false,
          "internalType": "string",
          "name": "link",
          "type": "string"
        }
      ],
      "name": "ArticleAdded",
      "type": "event"
    },
    {
      "anonymous": false,
      "inputs": [
        {
          "indexed": true,
          "internalType": "address",
          "name": "buyer",
          "type": "address"
        },
        {
          "indexed": false,
          "internalType": "uint256",
          "name": "articleId",
          "type": "uint256"
        },
        {
          "indexed": false,
          "internalType": "string",
          "name": "link",
          "type": "string"
        }
      ],
      "name": "ArticlePurchased",
      "type": "event"
    },
    {
      "anonymous": false,
      "inputs": [
        {
          "indexed": true,
          "internalType": "address",
          "name": "sender",
          "type": "address"
        },
        {
          "indexed": false,
          "internalType": "uint256",
          "name": "amount",
          "type": "uint256"
        }
      ],
      "name": "ReceivedETH",
      "type": "event"
    },
    {
      "inputs": [
        {
          "internalType": "uint256",
          "name": "priceInJT",
          "type": "uint256"
        },
        {
          "internalType": "string",
          "name": "link",
          "type": "string"
        }
      ],
      "name": "addArticle",
      "outputs": [],
      "stateMutability": "nonpayable",
      "type": "function"
    },
    {
      "inputs": [
        {
          "internalType": "uint256",
          "name": "",
          "type": "uint256"
        }
      ],
      "name": "articles",
      "outputs": [
        {
          "internalType": "uint256",
          "name": "id",
          "type": "uint256"
        },
        {
          "internalType": "uint256",
          "name": "price",
          "type": "uint256"
        },
        {
          "internalType": "string",
          "name": "link",
          "type": "string"
        }
      ],
      "stateMutability": "view",
      "type": "function"
    },
    {
      "inputs": [],
      "name": "decimals",
      "outputs": [
        {
          "internalType": "uint8",
          "name": "",
          "type": "uint8"
        }
      ],
      "stateMutability": "view",
      "type": "function"
    },
    {
      "inputs": [],
      "name": "getContractBalance",
      "outputs": [
        {
          "internalType": "uint256",
          "name": "",
          "type": "uint256"
        }
      ],
      "stateMutability": "view",
      "type": "function"
    },
    {
      "inputs": [],
      "name": "helloWorld",
      "outputs": [
        {
          "internalType": "string",
          "name": "",
          "type": "string"
        }
      ],
      "stateMutability": "pure",
      "type": "function"
    },
    {
      "inputs": [],
      "name": "nextArticleId",
      "outputs": [
        {
          "internalType": "uint256",
          "name": "",
          "type": "uint256"
        }
      ],
      "stateMutability": "view",
      "type": "function"
    },
    {
      "inputs": [],
      "name": "owner",
      "outputs": [
        {
          "internalType": "address",
          "name": "",
          "type": "address"
        }
      ],
      "stateMutability": "view",
      "type": "function"
    },
    {
      "inputs": [
        {
          "internalType": "uint256",
          "name": "articleId",
          "type": "uint256"
        }
      ],
      "name": "purchaseArticle",
      "outputs": [],
      "stateMutability": "nonpayable",
      "type": "function"
    },
    {
      "inputs": [],
      "name": "token",
      "outputs": [
        {
          "internalType": "contract JTCoin",
          "name": "",
          "type": "address"
        }
      ],
      "stateMutability": "view",
      "type": "function"
    },
    {
      "inputs": [],
      "name": "withdrawETH",
      "outputs": [],
      "stateMutability": "nonpayable",
      "type": "function"
    },
    {
      "inputs": [],
      "name": "withdrawJT",
      "outputs": [],
      "stateMutability": "nonpayable",
      "type": "function"
    },
    {
      "stateMutability": "payable",
      "type": "receive"
    }
  ],
  "bytecode": "0x60a0604052600160025534801561001557600080fd5b506040516117e83803806117e883398181016040528101906100379190610126565b8073ffffffffffffffffffffffffffffffffffffffff1660808173ffffffffffffffffffffffffffffffffffffffff1681525050336000806101000a81548173ffffffffffffffffffffffffffffffffffffffff021916908373ffffffffffffffffffffffffffffffffffffffff16021790555050610153565b600080fd5b600073ffffffffffffffffffffffffffffffffffffffff82169050919050565b60006100e1826100b6565b9050919050565b60006100f3826100d6565b9050919050565b610103816100e8565b811461010e57600080fd5b50565b600081519050610120816100fa565b92915050565b60006020828403121561013c5761013b6100b1565b5b600061014a84828501610111565b91505092915050565b6080516116516101976000396000818160a901528181610145015281816103ea0152818161050c01528181610569015281816108f20152610bd501526116516000f3fe6080604052600436106100a05760003560e01c80639e4c1295116100645780639e4c1295146102e8578063ac4f861a14610311578063c605f76c1461033a578063e086e5ec14610365578063edcfafe61461037c578063fc0c546a146103bb57610220565b8063313ce56714610225578063481fc1b0146102505780636f9fb98a1461026757806385c3ab54146102925780638da5cb5b146102bd57610220565b366102205760007f000000000000000000000000000000000000000000000000000000000000000073ffffffffffffffffffffffffffffffffffffffff16634174f1a56040518163ffffffff1660e01b8152600401602060405180830381865afa158015610112573d6000803e3d6000fd5b505050506040513d601f19601f820116820180604052508101906101369190610c41565b346101419190610c9d565b90507f000000000000000000000000000000000000000000000000000000000000000073ffffffffffffffffffffffffffffffffffffffff166340c10f1933836040518363ffffffff1660e01b815260040161019e929190610d2f565b600060405180830381600087803b1580156101b857600080fd5b505af11580156101cc573d6000803e3d6000fd5b505050503373ffffffffffffffffffffffffffffffffffffffff167f4103257eaac983ca79a70d28f90dfc4fa16b619bb0c17ee7cab0d4034c279624346040516102169190610d58565b60405180910390a2005b600080fd5b34801561023157600080fd5b5061023a6103e6565b6040516102479190610d8f565b60405180910390f35b34801561025c57600080fd5b5061026561047c565b005b34801561027357600080fd5b5061027c610664565b6040516102899190610d58565b60405180910390f35b34801561029e57600080fd5b506102a761066c565b6040516102b49190610d58565b60405180910390f35b3480156102c957600080fd5b506102d2610672565b6040516102df9190610daa565b60405180910390f35b3480156102f457600080fd5b5061030f600480360381019061030a9190610f20565b610696565b005b34801561031d57600080fd5b5061033860048036038101906103339190610f7c565b6107e1565b005b34801561034657600080fd5b5061034f6109ed565b60405161035c9190611028565b60405180910390f35b34801561037157600080fd5b5061037a610a2a565b005b34801561038857600080fd5b506103a3600480360381019061039e9190610f7c565b610b21565b6040516103b29392919061104a565b60405180910390f35b3480156103c757600080fd5b506103d0610bd3565b6040516103dd91906110e7565b60405180910390f35b60007f000000000000000000000000000000000000000000000000000000000000000073ffffffffffffffffffffffffffffffffffffffff1663313ce5676040518163ffffffff1660e01b8152600401602060405180830381865afa158015610453573d6000803e3d6000fd5b505050506040513d601f19601f82011682018060405250810190610477919061112e565b905090565b60008054906101000a900473ffffffffffffffffffffffffffffffffffffffff1673ffffffffffffffffffffffffffffffffffffffff163373ffffffffffffffffffffffffffffffffffffffff161461050a576040517f08c379a0000000000000000000000000000000000000000000000000000000008152600401610501906111a7565b60405180910390fd5b7f000000000000000000000000000000000000000000000000000000000000000073ffffffffffffffffffffffffffffffffffffffff1663a9059cbb60008054906101000a900473ffffffffffffffffffffffffffffffffffffffff167f000000000000000000000000000000000000000000000000000000000000000073ffffffffffffffffffffffffffffffffffffffff166370a08231306040518263ffffffff1660e01b81526004016105c09190610daa565b602060405180830381865afa1580156105dd573d6000803e3d6000fd5b505050506040513d601f19601f820116820180604052508101906106019190610c41565b6040518363ffffffff1660e01b815260040161061e929190610d2f565b6020604051808303816000875af115801561063d573d6000803e3d6000fd5b505050506040513d601f19601f8201168201806040525081019061066191906111ff565b50565b600047905090565b60025481565b60008054906101000a900473ffffffffffffffffffffffffffffffffffffffff1681565b60008054906101000a900473ffffffffffffffffffffffffffffffffffffffff1673ffffffffffffffffffffffffffffffffffffffff163373ffffffffffffffffffffffffffffffffffffffff1614610724576040517f08c379a000000000000000000000000000000000000000000000000000000000815260040161071b906111a7565b60405180910390fd5b6000829050604051806060016040528060025481526020018281526020018381525060016000600254815260200190815260200160002060008201518160000155602082015181600101556040820151816002019081610784919061142e565b509050506002547f5beb4887c4386b11b6fceb907e01cdd7b0009c6604f5c478f541bbad4c42b00a82846040516107bc929190611500565b60405180910390a2600260008154809291906107d790611530565b9190505550505050565b60006001600083815260200190815260200160002060405180606001604052908160008201548152602001600182015481526020016002820180546108259061125b565b80601f01602080910402602001604051908101604052809291908181526020018280546108519061125b565b801561089e5780601f106108735761010080835404028352916020019161089e565b820191906000526020600020905b81548152906001019060200180831161088157829003601f168201915b505050505081525050905060008160000151036108f0576040517f08c379a00000000000000000000000000000000000000000000000000000000081526004016108e7906115c4565b60405180910390fd5b7f000000000000000000000000000000000000000000000000000000000000000073ffffffffffffffffffffffffffffffffffffffff166323b872dd333084602001516040518463ffffffff1660e01b8152600401610951939291906115e4565b6020604051808303816000875af1158015610970573d6000803e3d6000fd5b505050506040513d601f19601f8201168201806040525081019061099491906111ff565b503373ffffffffffffffffffffffffffffffffffffffff167f3bf8c1a17dc1f549fafe76c9b4bb3ca4835128042747a6e92e3c6bf99ae7e1e58383604001516040516109e1929190611500565b60405180910390a25050565b60606040518060400160405280600b81526020017f68656c6c6f20776f726c64000000000000000000000000000000000000000000815250905090565b60008054906101000a900473ffffffffffffffffffffffffffffffffffffffff1673ffffffffffffffffffffffffffffffffffffffff163373ffffffffffffffffffffffffffffffffffffffff1614610ab8576040517f08c379a0000000000000000000000000000000000000000000000000000000008152600401610aaf906111a7565b60405180910390fd5b60008054906101000a900473ffffffffffffffffffffffffffffffffffffffff1673ffffffffffffffffffffffffffffffffffffffff166108fc479081150290604051600060405180830381858888f19350505050158015610b1e573d6000803e3d6000fd5b50565b6001602052806000526040600020600091509050806000015490806001015490806002018054610b509061125b565b80601f0160208091040260200160405190810160405280929190818152602001828054610b7c9061125b565b8015610bc95780601f10610b9e57610100808354040283529160200191610bc9565b820191906000526020600020905b815481529060010190602001808311610bac57829003601f168201915b5050505050905083565b7f000000000000000000000000000000000000000000000000000000000000000081565b6000604051905090565b600080fd5b600080fd5b6000819050919050565b610c1e81610c0b565b8114610c2957600080fd5b50565b600081519050610c3b81610c15565b92915050565b600060208284031215610c5757610c56610c01565b5b6000610c6584828501610c2c565b91505092915050565b7f4e487b7100000000000000000000000000000000000000000000000000000000600052601160045260246000fd5b6000610ca882610c0b565b9150610cb383610c0b565b9250828202610cc181610c0b565b91508282048414831517610cd857610cd7610c6e565b5b5092915050565b600073ffffffffffffffffffffffffffffffffffffffff82169050919050565b6000610d0a82610cdf565b9050919050565b610d1a81610cff565b82525050565b610d2981610c0b565b82525050565b6000604082019050610d446000830185610d11565b610d516020830184610d20565b9392505050565b6000602082019050610d6d6000830184610d20565b92915050565b600060ff82169050919050565b610d8981610d73565b82525050565b6000602082019050610da46000830184610d80565b92915050565b6000602082019050610dbf6000830184610d11565b92915050565b600081359050610dd481610c15565b92915050565b600080fd5b600080fd5b6000601f19601f8301169050919050565b7f4e487b7100000000000000000000000000000000000000000000000000000000600052604160045260246000fd5b610e2d82610de4565b810181811067ffffffffffffffff82111715610e4c57610e4b610df5565b5b80604052505050565b6000610e5f610bf7565b9050610e6b8282610e24565b919050565b600067ffffffffffffffff821115610e8b57610e8a610df5565b5b610e9482610de4565b9050602081019050919050565b82818337600083830152505050565b6000610ec3610ebe84610e70565b610e55565b905082815260208101848484011115610edf57610ede610ddf565b5b610eea848285610ea1565b509392505050565b600082601f830112610f0757610f06610dda565b5b8135610f17848260208601610eb0565b91505092915050565b60008060408385031215610f3757610f36610c01565b5b6000610f4585828601610dc5565b925050602083013567ffffffffffffffff811115610f6657610f65610c06565b5b610f7285828601610ef2565b9150509250929050565b600060208284031215610f9257610f91610c01565b5b6000610fa084828501610dc5565b91505092915050565b600081519050919050565b600082825260208201905092915050565b60005b83811015610fe3578082015181840152602081019050610fc8565b60008484015250505050565b6000610ffa82610fa9565b6110048185610fb4565b9350611014818560208601610fc5565b61101d81610de4565b840191505092915050565b600060208201905081810360008301526110428184610fef565b905092915050565b600060608201905061105f6000830186610d20565b61106c6020830185610d20565b818103604083015261107e8184610fef565b9050949350505050565b6000819050919050565b60006110ad6110a86110a384610cdf565b611088565b610cdf565b9050919050565b60006110bf82611092565b9050919050565b60006110d1826110b4565b9050919050565b6110e1816110c6565b82525050565b60006020820190506110fc60008301846110d8565b92915050565b61110b81610d73565b811461111657600080fd5b50565b60008151905061112881611102565b92915050565b60006020828403121561114457611143610c01565b5b600061115284828501611119565b91505092915050565b7f4e6f74206f776e65720000000000000000000000000000000000000000000000600082015250565b6000611191600983610fb4565b915061119c8261115b565b602082019050919050565b600060208201905081810360008301526111c081611184565b9050919050565b60008115159050919050565b6111dc816111c7565b81146111e757600080fd5b50565b6000815190506111f9816111d3565b92915050565b60006020828403121561121557611214610c01565b5b6000611223848285016111ea565b91505092915050565b7f4e487b7100000000000000000000000000000000000000000000000000000000600052602260045260246000fd5b6000600282049050600182168061127357607f821691505b6020821081036112865761128561122c565b5b50919050565b60008190508160005260206000209050919050565b60006020601f8301049050919050565b600082821b905092915050565b6000600883026112ee7fffffffffffffffffffffffffffffffffffffffffffffffffffffffffffffffff826112b1565b6112f886836112b1565b95508019841693508086168417925050509392505050565b600061132b61132661132184610c0b565b611088565b610c0b565b9050919050565b6000819050919050565b61134583611310565b61135961135182611332565b8484546112be565b825550505050565b600090565b61136e611361565b61137981848461133c565b505050565b5b8181101561139d57611392600082611366565b60018101905061137f565b5050565b601f8211156113e2576113b38161128c565b6113bc846112a1565b810160208510156113cb578190505b6113df6113d7856112a1565b83018261137e565b50505b505050565b600082821c905092915050565b6000611405600019846008026113e7565b1980831691505092915050565b600061141e83836113f4565b9150826002028217905092915050565b61143782610fa9565b67ffffffffffffffff8111156114505761144f610df5565b5b61145a825461125b565b6114658282856113a1565b600060209050601f8311600181146114985760008415611486578287015190505b6114908582611412565b8655506114f8565b601f1984166114a68661128c565b60005b828110156114ce578489015182556001820191506020850194506020810190506114a9565b868310156114eb57848901516114e7601f8916826113f4565b8355505b6001600288020188555050505b505050505050565b60006040820190506115156000830185610d20565b81810360208301526115278184610fef565b90509392505050565b600061153b82610c0b565b91507fffffffffffffffffffffffffffffffffffffffffffffffffffffffffffffffff820361156d5761156c610c6e565b5b600182019050919050565b7f746869732061727469636c65206e6f7420657869737473000000000000000000600082015250565b60006115ae601783610fb4565b91506115b982611578565b602082019050919050565b600060208201905081810360008301526115dd816115a1565b9050919050565b60006060820190506115f96000830186610d11565b6116066020830185610d11565b6116136040830184610d20565b94935050505056fea2646970667358221220352ba7253c857061bee0b9dc391c8333af3720d4ce5da2bafdc144639c352f5a64736f6c634300081c0033",
  "linkReferences": {},
  "deployedLinkReferences": {}
}