{
  "_format": "hh-sol-artifact-1",
  "contractName": "JTCoin",
  "sourceName": "contracts/JTCoin.sol",
  "abi": [
    {
      "inputs": [
        {
          "internalType": "string",
          "name": "name",
          "type": "string"
        },
        {
          "internalType": "string",
          "name": "symbol",
          "type": "string"
        }
      ],
      "stateMutability": "nonpayable",
      "type": "constructor"
    },
    {
      "inputs": [],
      "name": "AccessControlBadConfirmation",
      "type": "error"
    },
    {
      "inputs": [
        {
          "internalType": "address",
          "name": "account",
          "type": "address"
        },
        {
          "internalType": "bytes32",
          "name": "neededRole",
          "type": "bytes32"
        }
      ],
      "name": "AccessControlUnauthorizedAccount",
      "type": "error"
    },
    {
      "inputs": [
        {
          "internalType": "address",
          "name": "spender",
          "type": "address"
        },
        {
          "internalType": "uint256",
          "name": "allowance",
          "type": "uint256"
        },
        {
          "internalType": "uint256",
          "name": "needed",
          "type": "uint256"
        }
      ],
      "name": "ERC20InsufficientAllowance",
      "type": "error"
    },
    {
      "inputs": [
        {
          "internalType": "address",
          "name": "sender",
          "type": "address"
        },
        {
          "internalType": "uint256",
          "name": "balance",
          "type": "uint256"
        },
        {
          "internalType": "uint256",
          "name": "needed",
          "type": "uint256"
        }
      ],
      "name": "ERC20InsufficientBalance",
      "type": "error"
    },
    {
      "inputs": [
        {
          "internalType": "address",
          "name": "approver",
          "type": "address"
        }
      ],
      "name": "ERC20InvalidApprover",
      "type": "error"
    },
    {
      "inputs": [
        {
          "internalType": "address",
          "name": "receiver",
          "type": "address"
        }
      ],
      "name": "ERC20InvalidReceiver",
      "type": "error"
    },
    {
      "inputs": [
        {
          "internalType": "address",
          "name": "sender",
          "type": "address"
        }
      ],
      "name": "ERC20InvalidSender",
      "type": "error"
    },
    {
      "inputs": [
        {
          "internalType": "address",
          "name": "spender",
          "type": "address"
        }
      ],
      "name": "ERC20InvalidSpender",
      "type": "error"
    },
    {
      "anonymous": false,
      "inputs": [
        {
          "indexed": true,
          "internalType": "address",
          "name": "owner",
          "type": "address"
        },
        {
          "indexed": true,
          "internalType": "address",
          "name": "spender",
          "type": "address"
        },
        {
          "indexed": false,
          "internalType": "uint256",
          "name": "value",
          "type": "uint256"
        }
      ],
      "name": "Approval",
      "type": "event"
    },
    {
      "anonymous": false,
      "inputs": [
        {
          "indexed": true,
          "internalType": "bytes32",
          "name": "role",
          "type": "bytes32"
        },
        {
          "indexed": true,
          "internalType": "bytes32",
          "name": "previousAdminRole",
          "type": "bytes32"
        },
        {
          "indexed": true,
          "internalType": "bytes32",
          "name": "newAdminRole",
          "type": "bytes32"
        }
      ],
      "name": "RoleAdminChanged",
      "type": "event"
    },
    {
      "anonymous": false,
      "inputs": [
        {
          "indexed": true,
          "internalType": "bytes32",
          "name": "role",
          "type": "bytes32"
        },
        {
          "indexed": true,
          "internalType": "address",
          "name": "account",
          "type": "address"
        },
        {
          "indexed": true,
          "internalType": "address",
          "name": "sender",
          "type": "address"
        }
      ],
      "name": "RoleGranted",
      "type": "event"
    },
    {
      "anonymous": false,
      "inputs": [
        {
          "indexed": true,
          "internalType": "bytes32",
          "name": "role",
          "type": "bytes32"
        },
        {
          "indexed": true,
          "internalType": "address",
          "name": "account",
          "type": "address"
        },
        {
          "indexed": true,
          "internalType": "address",
          "name": "sender",
          "type": "address"
        }
      ],
      "name": "RoleRevoked",
      "type": "event"
    },
    {
      "anonymous": false,
      "inputs": [
        {
          "indexed": true,
          "internalType": "address",
          "name": "from",
          "type": "address"
        },
        {
          "indexed": true,
          "internalType": "address",
          "name": "to",
          "type": "address"
        },
        {
          "indexed": false,
          "internalType": "uint256",
          "name": "value",
          "type": "uint256"
        }
      ],
      "name": "Transfer",
      "type": "event"
    },
    {
      "inputs": [],
      "name": "DEFAULT_ADMIN_ROLE",
      "outputs": [
        {
          "internalType": "bytes32",
          "name": "",
          "type": "bytes32"
        }
      ],
      "stateMutability": "view",
      "type": "function"
    },
    {
      "inputs": [],
      "name": "MINTER_ROLE",
      "outputs": [
        {
          "internalType": "bytes32",
          "name": "",
          "type": "bytes32"
        }
      ],
      "stateMutability": "view",
      "type": "function"
    },
    {
      "inputs": [],
      "name": "TOKEN_RATE",
      "outputs": [
        {
          "internalType": "uint256",
          "name": "",
          "type": "uint256"
        }
      ],
      "stateMutability": "view",
      "type": "function"
    },
    {
      "inputs": [
        {
          "internalType": "address",
          "name": "owner",
          "type": "address"
        },
        {
          "internalType": "address",
          "name": "spender",
          "type": "address"
        }
      ],
      "name": "allowance",
      "outputs": [
        {
          "internalType": "uint256",
          "name": "",
          "type": "uint256"
        }
      ],
      "stateMutability": "view",
      "type": "function"
    },
    {
      "inputs": [
        {
          "internalType": "address",
          "name": "spender",
          "type": "address"
        },
        {
          "internalType": "uint256",
          "name": "value",
          "type": "uint256"
        }
      ],
      "name": "approve",
      "outputs": [
        {
          "internalType": "bool",
          "name": "",
          "type": "bool"
        }
      ],
      "stateMutability": "nonpayable",
      "type": "function"
    },
    {
      "inputs": [
        {
          "internalType": "address",
          "name": "account",
          "type": "address"
        }
      ],
      "name": "balanceOf",
      "outputs": [
        {
          "internalType": "uint256",
          "name": "",
          "type": "uint256"
        }
      ],
      "stateMutability": "view",
      "type": "function"
    },
    {
      "inputs": [],
      "name": "decimals",
      "outputs": [
        {
          "internalType": "uint8",
          "name": "",
          "type": "uint8"
        }
      ],
      "stateMutability": "view",
      "type": "function"
    },
    {
      "inputs": [
        {
          "internalType": "bytes32",
          "name": "role",
          "type": "bytes32"
        }
      ],
      "name": "getRoleAdmin",
      "outputs": [
        {
          "internalType": "bytes32",
          "name": "",
          "type": "bytes32"
        }
      ],
      "stateMutability": "view",
      "type": "function"
    },
    {
      "inputs": [
        {
          "internalType": "bytes32",
          "name": "role",
          "type": "bytes32"
        },
        {
          "internalType": "address",
          "name": "account",
          "type": "address"
        }
      ],
      "name": "grantRole",
      "outputs": [],
      "stateMutability": "nonpayable",
      "type": "function"
    },
    {
      "inputs": [
        {
          "internalType": "bytes32",
          "name": "role",
          "type": "bytes32"
        },
        {
          "internalType": "address",
          "name": "account",
          "type": "address"
        }
      ],
      "name": "hasRole",
      "outputs": [
        {
          "internalType": "bool",
          "name": "",
          "type": "bool"
        }
      ],
      "stateMutability": "view",
      "type": "function"
    },
    {
      "inputs": [
        {
          "internalType": "address",
          "name": "to",
          "type": "address"
        },
        {
          "internalType": "uint256",
          "name": "amount",
          "type": "uint256"
        }
      ],
      "name": "mint",
      "outputs": [],
      "stateMutability": "nonpayable",
      "type": "function"
    },
    {
      "inputs": [],
      "name": "name",
      "outputs": [
        {
          "internalType": "string",
          "name": "",
          "type": "string"
        }
      ],
      "stateMutability": "view",
      "type": "function"
    },
    {
      "inputs": [
        {
          "internalType": "bytes32",
          "name": "role",
          "type": "bytes32"
        },
        {
          "internalType": "address",
          "name": "callerConfirmation",
          "type": "address"
        }
      ],
      "name": "renounceRole",
      "outputs": [],
      "stateMutability": "nonpayable",
      "type": "function"
    },
    {
      "inputs": [
        {
          "internalType": "bytes32",
          "name": "role",
          "type": "bytes32"
        },
        {
          "internalType": "address",
          "name": "account",
          "type": "address"
        }
      ],
      "name": "revokeRole",
      "outputs": [],
      "stateMutability": "nonpayable",
      "type": "function"
    },
    {
      "inputs": [
        {
          "internalType": "bytes4",
          "name": "interfaceId",
          "type": "bytes4"
        }
      ],
      "name": "supportsInterface",
      "outputs": [
        {
          "internalType": "bool",
          "name": "",
          "type": "bool"
        }
      ],
      "stateMutability": "view",
      "type": "function"
    },
    {
      "inputs": [],
      "name": "symbol",
      "outputs": [
        {
          "internalType": "string",
          "name": "",
          "type": "string"
        }
      ],
      "stateMutability": "view",
      "type": "function"
    },
    {
      "inputs": [],
      "name": "totalSupply",
      "outputs": [
        {
          "internalType": "uint256",
          "name": "",
          "type": "uint256"
        }
      ],
      "stateMutability": "view",
      "type": "function"
    },
    {
      "inputs": [
        {
          "internalType": "address",
          "name": "to",
          "type": "address"
        },
        {
          "internalType": "uint256",
          "name": "value",
          "type": "uint256"
        }
      ],
      "name": "transfer",
      "outputs": [
        {
          "internalType": "bool",
          "name": "",
          "type": "bool"
        }
      ],
      "stateMutability": "nonpayable",
      "type": "function"
    },
    {
      "inputs": [
        {
          "internalType": "address",
          "name": "from",
          "type": "address"
        },
        {
          "internalType": "address",
          "name": "to",
          "type": "address"
        },
        {
          "internalType": "uint256",
          "name": "value",
          "type": "uint256"
        }
      ],
      "name": "transferFrom",
      "outputs": [
        {
          "internalType": "bool",
          "name": "",
          "type": "bool"
        }
      ],
      "stateMutability": "nonpayable",
      "type": "function"
    }
  ],
  "bytecode": "0x608060405234801561001057600080fd5b50604051611e1f380380611e1f83398181016040528101906100329190610388565b818181600390816100439190610621565b5080600490816100539190610621565b5050506100696000801b336100a260201b60201c565b5061009a7f9f2df0fed2c77648de5860a4cc508cd0818c85b8b8a1ab4ceeef8d981c8956a6336100a260201b60201c565b5050506106f3565b60006100b483836101a060201b60201c565b6101955760016005600085815260200190815260200160002060000160008473ffffffffffffffffffffffffffffffffffffffff1673ffffffffffffffffffffffffffffffffffffffff16815260200190815260200160002060006101000a81548160ff02191690831515021790555061013261020b60201b60201c565b73ffffffffffffffffffffffffffffffffffffffff168273ffffffffffffffffffffffffffffffffffffffff16847f2f8788117e7eff1d82e926ec794901d17c78024a50270940304540a733656f0d60405160405180910390a46001905061019a565b600090505b92915050565b60006005600084815260200190815260200160002060000160008373ffffffffffffffffffffffffffffffffffffffff1673ffffffffffffffffffffffffffffffffffffffff16815260200190815260200160002060009054906101000a900460ff16905092915050565b600033905090565b6000604051905090565b600080fd5b600080fd5b600080fd5b600080fd5b6000601f19601f8301169050919050565b7f4e487b7100000000000000000000000000000000000000000000000000000000600052604160045260246000fd5b61027a82610231565b810181811067ffffffffffffffff8211171561029957610298610242565b5b80604052505050565b60006102ac610213565b90506102b88282610271565b919050565b600067ffffffffffffffff8211156102d8576102d7610242565b5b6102e182610231565b9050602081019050919050565b60005b8381101561030c5780820151818401526020810190506102f1565b60008484015250505050565b600061032b610326846102bd565b6102a2565b9050828152602081018484840111156103475761034661022c565b5b6103528482856102ee565b509392505050565b600082601f83011261036f5761036e610227565b5b815161037f848260208601610318565b91505092915050565b6000806040838503121561039f5761039e61021d565b5b600083015167ffffffffffffffff8111156103bd576103bc610222565b5b6103c98582860161035a565b925050602083015167ffffffffffffffff8111156103ea576103e9610222565b5b6103f68582860161035a565b9150509250929050565b600081519050919050565b7f4e487b7100000000000000000000000000000000000000000000000000000000600052602260045260246000fd5b6000600282049050600182168061045257607f821691505b6020821081036104655761046461040b565b5b50919050565b60008190508160005260206000209050919050565b60006020601f8301049050919050565b600082821b905092915050565b6000600883026104cd7fffffffffffffffffffffffffffffffffffffffffffffffffffffffffffffffff82610490565b6104d78683610490565b95508019841693508086168417925050509392505050565b6000819050919050565b6000819050919050565b600061051e610519610514846104ef565b6104f9565b6104ef565b9050919050565b6000819050919050565b61053883610503565b61054c61054482610525565b84845461049d565b825550505050565b600090565b610561610554565b61056c81848461052f565b505050565b5b8181101561059057610585600082610559565b600181019050610572565b5050565b601f8211156105d5576105a68161046b565b6105af84610480565b810160208510156105be578190505b6105d26105ca85610480565b830182610571565b50505b505050565b600082821c905092915050565b60006105f8600019846008026105da565b1980831691505092915050565b600061061183836105e7565b9150826002028217905092915050565b61062a82610400565b67ffffffffffffffff81111561064357610642610242565b5b61064d825461043a565b610658828285610594565b600060209050601f83116001811461068b5760008415610679578287015190505b6106838582610605565b8655506106eb565b601f1984166106998661046b565b60005b828110156106c15784890151825560018201915060208501945060208101905061069c565b868310156106de57848901516106da601f8916826105e7565b8355505b6001600288020188555050505b505050505050565b61171d806107026000396000f3fe608060405234801561001057600080fd5b50600436106101215760003560e01c806340c10f19116100ad578063a217fddf11610071578063a217fddf14610330578063a9059cbb1461034e578063d53913931461037e578063d547741f1461039c578063dd62ed3e146103b857610121565b806340c10f19146102785780634174f1a51461029457806370a08231146102b257806391d14854146102e257806395d89b411461031257610121565b806323b872dd116100f457806323b872dd146101c2578063248a9ca3146101f25780632f2ff15d14610222578063313ce5671461023e57806336568abe1461025c57610121565b806301ffc9a71461012657806306fdde0314610156578063095ea7b31461017457806318160ddd146101a4575b600080fd5b610140600480360381019061013b91906111c3565b6103e8565b60405161014d919061120b565b60405180910390f35b61015e610462565b60405161016b91906112b6565b60405180910390f35b61018e6004803603810190610189919061136c565b6104f4565b60405161019b919061120b565b60405180910390f35b6101ac610517565b6040516101b991906113bb565b60405180910390f35b6101dc60048036038101906101d791906113d6565b610521565b6040516101e9919061120b565b60405180910390f35b61020c6004803603810190610207919061145f565b610550565b604051610219919061149b565b60405180910390f35b61023c600480360381019061023791906114b6565b610570565b005b610246610592565b6040516102539190611512565b60405180910390f35b610276600480360381019061027191906114b6565b61059b565b005b610292600480360381019061028d919061136c565b610616565b005b61029c61064f565b6040516102a991906113bb565b60405180910390f35b6102cc60048036038101906102c7919061152d565b610655565b6040516102d991906113bb565b60405180910390f35b6102fc60048036038101906102f791906114b6565b61069d565b604051610309919061120b565b60405180910390f35b61031a610708565b60405161032791906112b6565b60405180910390f35b61033861079a565b604051610345919061149b565b60405180910390f35b6103686004803603810190610363919061136c565b6107a1565b604051610375919061120b565b60405180910390f35b6103866107c4565b604051610393919061149b565b60405180910390f35b6103b660048036038101906103b191906114b6565b6107e8565b005b6103d260048036038101906103cd919061155a565b61080a565b6040516103df91906113bb565b60405180910390f35b60007f7965db0b000000000000000000000000000000000000000000000000000000007bffffffffffffffffffffffffffffffffffffffffffffffffffffffff1916827bffffffffffffffffffffffffffffffffffffffffffffffffffffffff1916148061045b575061045a82610891565b5b9050919050565b606060038054610471906115c9565b80601f016020809104026020016040519081016040528092919081815260200182805461049d906115c9565b80156104ea5780601f106104bf576101008083540402835291602001916104ea565b820191906000526020600020905b8154815290600101906020018083116104cd57829003601f168201915b5050505050905090565b6000806104ff6108fb565b905061050c818585610903565b600191505092915050565b6000600254905090565b60008061052c6108fb565b9050610539858285610915565b6105448585856109aa565b60019150509392505050565b600060056000838152602001908152602001600020600101549050919050565b61057982610550565b61058281610a9e565b61058c8383610ab2565b50505050565b60006012905090565b6105a36108fb565b73ffffffffffffffffffffffffffffffffffffffff168173ffffffffffffffffffffffffffffffffffffffff1614610607576040517f6697b23200000000000000000000000000000000000000000000000000000000815260040160405180910390fd5b6106118282610ba4565b505050565b7f9f2df0fed2c77648de5860a4cc508cd0818c85b8b8a1ab4ceeef8d981c8956a661064081610a9e565b61064a8383610c97565b505050565b6103e881565b60008060008373ffffffffffffffffffffffffffffffffffffffff1673ffffffffffffffffffffffffffffffffffffffff168152602001908152602001600020549050919050565b60006005600084815260200190815260200160002060000160008373ffffffffffffffffffffffffffffffffffffffff1673ffffffffffffffffffffffffffffffffffffffff16815260200190815260200160002060009054906101000a900460ff16905092915050565b606060048054610717906115c9565b80601f0160208091040260200160405190810160405280929190818152602001828054610743906115c9565b80156107905780601f1061076557610100808354040283529160200191610790565b820191906000526020600020905b81548152906001019060200180831161077357829003601f168201915b5050505050905090565b6000801b81565b6000806107ac6108fb565b90506107b98185856109aa565b600191505092915050565b7f9f2df0fed2c77648de5860a4cc508cd0818c85b8b8a1ab4ceeef8d981c8956a681565b6107f182610550565b6107fa81610a9e565b6108048383610ba4565b50505050565b6000600160008473ffffffffffffffffffffffffffffffffffffffff1673ffffffffffffffffffffffffffffffffffffffff16815260200190815260200160002060008373ffffffffffffffffffffffffffffffffffffffff1673ffffffffffffffffffffffffffffffffffffffff16815260200190815260200160002054905092915050565b60007f01ffc9a7000000000000000000000000000000000000000000000000000000007bffffffffffffffffffffffffffffffffffffffffffffffffffffffff1916827bffffffffffffffffffffffffffffffffffffffffffffffffffffffff1916149050919050565b600033905090565b6109108383836001610d19565b505050565b6000610921848461080a565b90507fffffffffffffffffffffffffffffffffffffffffffffffffffffffffffffffff8110156109a45781811015610994578281836040517ffb8f41b200000000000000000000000000000000000000000000000000000000815260040161098b93929190611609565b60405180910390fd5b6109a384848484036000610d19565b5b50505050565b600073ffffffffffffffffffffffffffffffffffffffff168373ffffffffffffffffffffffffffffffffffffffff1603610a1c5760006040517f96c6fd1e000000000000000000000000000000000000000000000000000000008152600401610a139190611640565b60405180910390fd5b600073ffffffffffffffffffffffffffffffffffffffff168273ffffffffffffffffffffffffffffffffffffffff1603610a8e5760006040517fec442f05000000000000000000000000000000000000000000000000000000008152600401610a859190611640565b60405180910390fd5b610a99838383610ef0565b505050565b610aaf81610aaa6108fb565b611115565b50565b6000610abe838361069d565b610b995760016005600085815260200190815260200160002060000160008473ffffffffffffffffffffffffffffffffffffffff1673ffffffffffffffffffffffffffffffffffffffff16815260200190815260200160002060006101000a81548160ff021916908315150217905550610b366108fb565b73ffffffffffffffffffffffffffffffffffffffff168273ffffffffffffffffffffffffffffffffffffffff16847f2f8788117e7eff1d82e926ec794901d17c78024a50270940304540a733656f0d60405160405180910390a460019050610b9e565b600090505b92915050565b6000610bb0838361069d565b15610c8c5760006005600085815260200190815260200160002060000160008473ffffffffffffffffffffffffffffffffffffffff1673ffffffffffffffffffffffffffffffffffffffff16815260200190815260200160002060006101000a81548160ff021916908315150217905550610c296108fb565b73ffffffffffffffffffffffffffffffffffffffff168273ffffffffffffffffffffffffffffffffffffffff16847ff6391f5c32d9c69d2a47ea670b442974b53935d1edc7fd64eb21e047a839171b60405160405180910390a460019050610c91565b600090505b92915050565b600073ffffffffffffffffffffffffffffffffffffffff168273ffffffffffffffffffffffffffffffffffffffff1603610d095760006040517fec442f05000000000000000000000000000000000000000000000000000000008152600401610d009190611640565b60405180910390fd5b610d1560008383610ef0565b5050565b600073ffffffffffffffffffffffffffffffffffffffff168473ffffffffffffffffffffffffffffffffffffffff1603610d8b5760006040517fe602df05000000000000000000000000000000000000000000000000000000008152600401610d829190611640565b60405180910390fd5b600073ffffffffffffffffffffffffffffffffffffffff168373ffffffffffffffffffffffffffffffffffffffff1603610dfd5760006040517f94280d62000000000000000000000000000000000000000000000000000000008152600401610df49190611640565b60405180910390fd5b81600160008673ffffffffffffffffffffffffffffffffffffffff1673ffffffffffffffffffffffffffffffffffffffff16815260200190815260200160002060008573ffffffffffffffffffffffffffffffffffffffff1673ffffffffffffffffffffffffffffffffffffffff168152602001908152602001600020819055508015610eea578273ffffffffffffffffffffffffffffffffffffffff168473ffffffffffffffffffffffffffffffffffffffff167f8c5be1e5ebec7d5bd14f71427d1e84f3dd0314c0f7b2291e5b200ac8c7c3b92584604051610ee191906113bb565b60405180910390a35b50505050565b600073ffffffffffffffffffffffffffffffffffffffff168373ffffffffffffffffffffffffffffffffffffffff1603610f42578060026000828254610f36919061168a565b92505081905550611015565b60008060008573ffffffffffffffffffffffffffffffffffffffff1673ffffffffffffffffffffffffffffffffffffffff16815260200190815260200160002054905081811015610fce578381836040517fe450d38c000000000000000000000000000000000000000000000000000000008152600401610fc593929190611609565b60405180910390fd5b8181036000808673ffffffffffffffffffffffffffffffffffffffff1673ffffffffffffffffffffffffffffffffffffffff16815260200190815260200160002081905550505b600073ffffffffffffffffffffffffffffffffffffffff168273ffffffffffffffffffffffffffffffffffffffff160361105e57806002600082825403925050819055506110ab565b806000808473ffffffffffffffffffffffffffffffffffffffff1673ffffffffffffffffffffffffffffffffffffffff168152602001908152602001600020600082825401925050819055505b8173ffffffffffffffffffffffffffffffffffffffff168373ffffffffffffffffffffffffffffffffffffffff167fddf252ad1be2c89b69c2b068fc378daa952ba7f163c4a11628f55a4df523b3ef8360405161110891906113bb565b60405180910390a3505050565b61111f828261069d565b6111625780826040517fe2517d3f0000000000000000000000000000000000000000000000000000000081526004016111599291906116be565b60405180910390fd5b5050565b600080fd5b60007fffffffff0000000000000000000000000000000000000000000000000000000082169050919050565b6111a08161116b565b81146111ab57600080fd5b50565b6000813590506111bd81611197565b92915050565b6000602082840312156111d9576111d8611166565b5b60006111e7848285016111ae565b91505092915050565b60008115159050919050565b611205816111f0565b82525050565b600060208201905061122060008301846111fc565b92915050565b600081519050919050565b600082825260208201905092915050565b60005b83811015611260578082015181840152602081019050611245565b60008484015250505050565b6000601f19601f8301169050919050565b600061128882611226565b6112928185611231565b93506112a2818560208601611242565b6112ab8161126c565b840191505092915050565b600060208201905081810360008301526112d0818461127d565b905092915050565b600073ffffffffffffffffffffffffffffffffffffffff82169050919050565b6000611303826112d8565b9050919050565b611313816112f8565b811461131e57600080fd5b50565b6000813590506113308161130a565b92915050565b6000819050919050565b61134981611336565b811461135457600080fd5b50565b60008135905061136681611340565b92915050565b6000806040838503121561138357611382611166565b5b600061139185828601611321565b92505060206113a285828601611357565b9150509250929050565b6113b581611336565b82525050565b60006020820190506113d060008301846113ac565b92915050565b6000806000606084860312156113ef576113ee611166565b5b60006113fd86828701611321565b935050602061140e86828701611321565b925050604061141f86828701611357565b9150509250925092565b6000819050919050565b61143c81611429565b811461144757600080fd5b50565b60008135905061145981611433565b92915050565b60006020828403121561147557611474611166565b5b60006114838482850161144a565b91505092915050565b61149581611429565b82525050565b60006020820190506114b0600083018461148c565b92915050565b600080604083850312156114cd576114cc611166565b5b60006114db8582860161144a565b92505060206114ec85828601611321565b9150509250929050565b600060ff82169050919050565b61150c816114f6565b82525050565b60006020820190506115276000830184611503565b92915050565b60006020828403121561154357611542611166565b5b600061155184828501611321565b91505092915050565b6000806040838503121561157157611570611166565b5b600061157f85828601611321565b925050602061159085828601611321565b9150509250929050565b7f4e487b7100000000000000000000000000000000000000000000000000000000600052602260045260246000fd5b600060028204905060018216806115e157607f821691505b6020821081036115f4576115f361159a565b5b50919050565b611603816112f8565b82525050565b600060608201905061161e60008301866115fa565b61162b60208301856113ac565b61163860408301846113ac565b949350505050565b600060208201905061165560008301846115fa565b92915050565b7f4e487b7100000000000000000000000000000000000000000000000000000000600052601160045260246000fd5b600061169582611336565b91506116a083611336565b92508282019050808211156116b8576116b761165b565b5b92915050565b60006040820190506116d360008301856115fa565b6116e0602083018461148c565b939250505056fea264697066735822122006da831c328b7764297f27270239a4bcd9e70e596d02d1f556d49357663bb8f264736f6c634300081c0033",
  "linkReferences": {},
  "deployedLinkReferences": {}
}