{
  "_format": "hh-sol-artifact-1",
  "contractName": "BlogShop",
  "sourceName": "contracts/BlogShop.sol",
  "abi": [
    {
      "inputs": [
        {
          "internalType": "contract JTCoin",
          "name": "_address",
          "type": "address"
        }
      ],
      "stateMutability": "nonpayable",
      "type": "constructor"
    },
    {
      "inputs": [],
      "name": "AccessControlBadConfirmation",
      "type": "error"
    },
    {
      "inputs": [
        {
          "internalType": "address",
          "name": "account",
          "type": "address"
        },
        {
          "internalType": "bytes32",
          "name": "neededRole",
          "type": "bytes32"
        }
      ],
      "name": "AccessControlUnauthorizedAccount",
      "type": "error"
    },
    {
      "anonymous": false,
      "inputs": [
        {
          "indexed": true,
          "internalType": "uint256",
          "name": "articleId",
          "type": "uint256"
        },
        {
          "indexed": false,
          "internalType": "uint256",
          "name": "price",
          "type": "uint256"
        },
        {
          "indexed": false,
          "internalType": "string",
          "name": "link",
          "type": "string"
        }
      ],
      "name": "ArticleAdded",
      "type": "event"
    },
    {
      "anonymous": false,
      "inputs": [
        {
          "indexed": true,
          "internalType": "address",
          "name": "buyer",
          "type": "address"
        },
        {
          "indexed": false,
          "internalType": "uint256",
          "name": "articleId",
          "type": "uint256"
        },
        {
          "indexed": false,
          "internalType": "string",
          "name": "link",
          "type": "string"
        }
      ],
      "name": "ArticlePurchased",
      "type": "event"
    },
    {
      "anonymous": false,
      "inputs": [
        {
          "indexed": true,
          "internalType": "bytes32",
          "name": "role",
          "type": "bytes32"
        },
        {
          "indexed": true,
          "internalType": "bytes32",
          "name": "previousAdminRole",
          "type": "bytes32"
        },
        {
          "indexed": true,
          "internalType": "bytes32",
          "name": "newAdminRole",
          "type": "bytes32"
        }
      ],
      "name": "RoleAdminChanged",
      "type": "event"
    },
    {
      "anonymous": false,
      "inputs": [
        {
          "indexed": true,
          "internalType": "bytes32",
          "name": "role",
          "type": "bytes32"
        },
        {
          "indexed": true,
          "internalType": "address",
          "name": "account",
          "type": "address"
        },
        {
          "indexed": true,
          "internalType": "address",
          "name": "sender",
          "type": "address"
        }
      ],
      "name": "RoleGranted",
      "type": "event"
    },
    {
      "anonymous": false,
      "inputs": [
        {
          "indexed": true,
          "internalType": "bytes32",
          "name": "role",
          "type": "bytes32"
        },
        {
          "indexed": true,
          "internalType": "address",
          "name": "account",
          "type": "address"
        },
        {
          "indexed": true,
          "internalType": "address",
          "name": "sender",
          "type": "address"
        }
      ],
      "name": "RoleRevoked",
      "type": "event"
    },
    {
      "inputs": [],
      "name": "DEFAULT_ADMIN_ROLE",
      "outputs": [
        {
          "internalType": "bytes32",
          "name": "",
          "type": "bytes32"
        }
      ],
      "stateMutability": "view",
      "type": "function"
    },
    {
      "inputs": [],
      "name": "MINTER_ROLE",
      "outputs": [
        {
          "internalType": "bytes32",
          "name": "",
          "type": "bytes32"
        }
      ],
      "stateMutability": "view",
      "type": "function"
    },
    {
      "inputs": [
        {
          "internalType": "uint256",
          "name": "priceInJT",
          "type": "uint256"
        },
        {
          "internalType": "string",
          "name": "link",
          "type": "string"
        }
      ],
      "name": "addArticle",
      "outputs": [],
      "stateMutability": "nonpayable",
      "type": "function"
    },
    {
      "inputs": [
        {
          "internalType": "uint256",
          "name": "",
          "type": "uint256"
        }
      ],
      "name": "articleIds",
      "outputs": [
        {
          "internalType": "uint256",
          "name": "",
          "type": "uint256"
        }
      ],
      "stateMutability": "view",
      "type": "function"
    },
    {
      "inputs": [
        {
          "internalType": "uint256",
          "name": "",
          "type": "uint256"
        }
      ],
      "name": "articles",
      "outputs": [
        {
          "internalType": "uint256",
          "name": "id",
          "type": "uint256"
        },
        {
          "internalType": "uint256",
          "name": "price",
          "type": "uint256"
        },
        {
          "internalType": "string",
          "name": "link",
          "type": "string"
        }
      ],
      "stateMutability": "view",
      "type": "function"
    },
    {
      "inputs": [],
      "name": "getAllArticles",
      "outputs": [
        {
          "components": [
            {
              "internalType": "uint256",
              "name": "id",
              "type": "uint256"
            },
            {
              "internalType": "uint256",
              "name": "price",
              "type": "uint256"
            },
            {
              "internalType": "string",
              "name": "link",
              "type": "string"
            }
          ],
          "internalType": "struct BlogShop.Article[]",
          "name": "",
          "type": "tuple[]"
        }
      ],
      "stateMutability": "view",
      "type": "function"
    },
    {
      "inputs": [],
      "name": "getAllPurchases",
      "outputs": [
        {
          "components": [
            {
              "internalType": "uint256",
              "name": "purchaseId",
              "type": "uint256"
            },
            {
              "internalType": "address",
              "name": "buyer",
              "type": "address"
            },
            {
              "internalType": "uint256",
              "name": "articleId",
              "type": "uint256"
            }
          ],
          "internalType": "struct BlogShop.Purchase[]",
          "name": "",
          "type": "tuple[]"
        }
      ],
      "stateMutability": "view",
      "type": "function"
    },
    {
      "inputs": [],
      "name": "getArticleCount",
      "outputs": [
        {
          "internalType": "uint256",
          "name": "",
          "type": "uint256"
        }
      ],
      "stateMutability": "view",
      "type": "function"
    },
    {
      "inputs": [],
      "name": "getContractETH",
      "outputs": [
        {
          "internalType": "uint256",
          "name": "",
          "type": "uint256"
        }
      ],
      "stateMutability": "view",
      "type": "function"
    },
    {
      "inputs": [],
      "name": "getContractJT",
      "outputs": [
        {
          "internalType": "uint256",
          "name": "",
          "type": "uint256"
        }
      ],
      "stateMutability": "view",
      "type": "function"
    },
    {
      "inputs": [
        {
          "internalType": "address",
          "name": "buyer",
          "type": "address"
        }
      ],
      "name": "getPUrchaseByBuyer",
      "outputs": [
        {
          "components": [
            {
              "internalType": "uint256",
              "name": "purchaseId",
              "type": "uint256"
            },
            {
              "internalType": "address",
              "name": "buyer",
              "type": "address"
            },
            {
              "internalType": "uint256",
              "name": "articleId",
              "type": "uint256"
            }
          ],
          "internalType": "struct BlogShop.Purchase[]",
          "name": "",
          "type": "tuple[]"
        }
      ],
      "stateMutability": "view",
      "type": "function"
    },
    {
      "inputs": [],
      "name": "getPurchaseCount",
      "outputs": [
        {
          "internalType": "uint256",
          "name": "",
          "type": "uint256"
        }
      ],
      "stateMutability": "view",
      "type": "function"
    },
    {
      "inputs": [
        {
          "internalType": "bytes32",
          "name": "role",
          "type": "bytes32"
        }
      ],
      "name": "getRoleAdmin",
      "outputs": [
        {
          "internalType": "bytes32",
          "name": "",
          "type": "bytes32"
        }
      ],
      "stateMutability": "view",
      "type": "function"
    },
    {
      "inputs": [
        {
          "internalType": "bytes32",
          "name": "role",
          "type": "bytes32"
        },
        {
          "internalType": "address",
          "name": "account",
          "type": "address"
        }
      ],
      "name": "grantRole",
      "outputs": [],
      "stateMutability": "nonpayable",
      "type": "function"
    },
    {
      "inputs": [
        {
          "internalType": "bytes32",
          "name": "role",
          "type": "bytes32"
        },
        {
          "internalType": "address",
          "name": "account",
          "type": "address"
        }
      ],
      "name": "hasRole",
      "outputs": [
        {
          "internalType": "bool",
          "name": "",
          "type": "bool"
        }
      ],
      "stateMutability": "view",
      "type": "function"
    },
    {
      "inputs": [],
      "name": "nextArticleId",
      "outputs": [
        {
          "internalType": "uint256",
          "name": "",
          "type": "uint256"
        }
      ],
      "stateMutability": "view",
      "type": "function"
    },
    {
      "inputs": [],
      "name": "owner",
      "outputs": [
        {
          "internalType": "address",
          "name": "",
          "type": "address"
        }
      ],
      "stateMutability": "view",
      "type": "function"
    },
    {
      "inputs": [
        {
          "internalType": "uint256",
          "name": "articleId",
          "type": "uint256"
        }
      ],
      "name": "purchaseArticle",
      "outputs": [],
      "stateMutability": "nonpayable",
      "type": "function"
    },
    {
      "inputs": [
        {
          "internalType": "uint256",
          "name": "",
          "type": "uint256"
        }
      ],
      "name": "purchaseIds",
      "outputs": [
        {
          "internalType": "uint256",
          "name": "",
          "type": "uint256"
        }
      ],
      "stateMutability": "view",
      "type": "function"
    },
    {
      "inputs": [
        {
          "internalType": "uint256",
          "name": "",
          "type": "uint256"
        }
      ],
      "name": "purchases",
      "outputs": [
        {
          "internalType": "uint256",
          "name": "purchaseId",
          "type": "uint256"
        },
        {
          "internalType": "address",
          "name": "buyer",
          "type": "address"
        },
        {
          "internalType": "uint256",
          "name": "articleId",
          "type": "uint256"
        }
      ],
      "stateMutability": "view",
      "type": "function"
    },
    {
      "inputs": [
        {
          "internalType": "bytes32",
          "name": "role",
          "type": "bytes32"
        },
        {
          "internalType": "address",
          "name": "callerConfirmation",
          "type": "address"
        }
      ],
      "name": "renounceRole",
      "outputs": [],
      "stateMutability": "nonpayable",
      "type": "function"
    },
    {
      "inputs": [
        {
          "internalType": "bytes32",
          "name": "role",
          "type": "bytes32"
        },
        {
          "internalType": "address",
          "name": "account",
          "type": "address"
        }
      ],
      "name": "revokeRole",
      "outputs": [],
      "stateMutability": "nonpayable",
      "type": "function"
    },
    {
      "inputs": [
        {
          "internalType": "bytes4",
          "name": "interfaceId",
          "type": "bytes4"
        }
      ],
      "name": "supportsInterface",
      "outputs": [
        {
          "internalType": "bool",
          "name": "",
          "type": "bool"
        }
      ],
      "stateMutability": "view",
      "type": "function"
    },
    {
      "inputs": [],
      "name": "tokenAddress",
      "outputs": [
        {
          "internalType": "contract JTCoin",
          "name": "",
          "type": "address"
        }
      ],
      "stateMutability": "view",
      "type": "function"
    },
    {
      "inputs": [],
      "name": "withdrawETH",
      "outputs": [],
      "stateMutability": "nonpayable",
      "type": "function"
    },
    {
      "inputs": [],
      "name": "withdrawJT",
      "outputs": [],
      "stateMutability": "nonpayable",
      "type": "function"
    }
  ],
  "bytecode": "0x60a060405260016003556001600655348015610019575f5ffd5b506040516116a73803806116a783398101604081905261003891610135565b6001600160a01b038116608052600180546001600160a01b03191633908117909155610085907f9f2df0fed2c77648de5860a4cc508cd0818c85b8b8a1ab4ceeef8d981c8956a69061008c565b5050610162565b5f828152602081815260408083206001600160a01b038516845290915281205460ff1661012c575f838152602081815260408083206001600160a01b03861684529091529020805460ff191660011790556100e43390565b6001600160a01b0316826001600160a01b0316847f2f8788117e7eff1d82e926ec794901d17c78024a50270940304540a733656f0d60405160405180910390a450600161012f565b505f5b92915050565b5f60208284031215610145575f5ffd5b81516001600160a01b038116811461015b575f5ffd5b9392505050565b60805161151861018f5f395f81816102fa0152818161062b01528181610ad50152610d6d01526115185ff3fe608060405234801561000f575f5ffd5b5060043610610187575f3560e01c80639d76ea58116100d9578063becd283f11610093578063d65fb1601161006e578063d65fb16014610395578063e086e5ec146103a8578063e899d5ff146103b0578063edcfafe6146103b8575f5ffd5b8063becd283f14610366578063d53913931461036e578063d547741f14610382575f5ffd5b80639d76ea58146102f55780639e4c12951461031c578063a217fddf1461032f578063ac4f861a14610336578063b44d310b14610349578063b5239bbe1461035e575f5ffd5b8063481fc1b0116101445780638392fe311161011f5780638392fe311461025457806385c3ab54146102ae5780638da5cb5b146102b757806391d14854146102e2575f5ffd5b8063481fc1b01461023e57806350b3967d146102465780638258cbbd1461024e575f5ffd5b806301ffc9a71461018b578063248a9ca3146101b35780632de6f5b5146101e35780632f2ff15d146101f657806336568abe1461020b578063394e858b1461021e575b5f5ffd5b61019e61019936600461104b565b6103da565b60405190151581526020015b60405180910390f35b6101d56101c1366004611079565b5f9081526020819052604090206001015490565b6040519081526020016101aa565b6101d56101f1366004611079565b610410565b6102096102043660046110ab565b61042f565b005b6102096102193660046110ab565b610459565b61023161022c3660046110d5565b610491565b6040516101aa91906110ee565b6102096105f2565b610231610719565b476101d5565b61028b610262366004611079565b60056020525f908152604090208054600182015460029092015490916001600160a01b03169083565b604080519384526001600160a01b039092166020840152908201526060016101aa565b6101d560035481565b6001546102ca906001600160a01b031681565b6040516001600160a01b0390911681526020016101aa565b61019e6102f03660046110ab565b61082c565b6102ca7f000000000000000000000000000000000000000000000000000000000000000081565b61020961032a366004611166565b610854565b6101d55f81565b610209610344366004611079565b610941565b610351610bd5565b6040516101aa9190611251565b6101d5610d56565b6007546101d5565b6101d55f5160206114c35f395f51905f5281565b6102096103903660046110ab565b610de3565b6101d56103a3366004611079565b610e07565b610209610e16565b6004546101d5565b6103cb6103c6366004611079565b610e63565b6040516101aa939291906112d5565b5f6001600160e01b03198216637965db0b60e01b148061040a57506301ffc9a760e01b6001600160e01b03198316145b92915050565b6004818154811061041f575f80fd5b5f91825260209091200154905081565b5f8281526020819052604090206001015461044981610f0d565b6104538383610f1a565b50505050565b6001600160a01b03811633146104825760405163334bd91960e11b815260040160405180910390fd5b61048c8282610fa9565b505050565b6007546060905f9067ffffffffffffffff8111156104b1576104b1611152565b60405190808252806020026020018201604052801561050c57816020015b6104f960405180606001604052805f81526020015f6001600160a01b031681526020015f81525090565b8152602001906001900390816104cf5790505b5090505f5b6007548110156105eb57836001600160a01b031660055f6007848154811061053b5761053b6112fc565b5f91825260208083209091015483528201929092526040019020600101546001600160a01b0316036105e35760055f6007838154811061057d5761057d6112fc565b5f9182526020808320909101548352828101939093526040918201902081516060810183528154815260018201546001600160a01b031693810193909352600201549082015282518390839081106105d7576105d76112fc565b60200260200101819052505b600101610511565b5050919050565b5f5160206114c35f395f51905f5261060981610f0d565b6001546040516370a0823160e01b815230600482018190526001600160a01b037f00000000000000000000000000000000000000000000000000000000000000008116936323b872dd9391169084906370a0823190602401602060405180830381865afa15801561067c573d5f5f3e3d5ffd5b505050506040513d601f19601f820116820180604052508101906106a09190611310565b6040516001600160e01b031960e086901b1681526001600160a01b03938416600482015292909116602483015260448201526064016020604051808303815f875af11580156106f1573d5f5f3e3d5ffd5b505050506040513d601f19601f820116820180604052508101906107159190611327565b5050565b6007546060905f9067ffffffffffffffff81111561073957610739611152565b60405190808252806020026020018201604052801561079457816020015b61078160405180606001604052805f81526020015f6001600160a01b031681526020015f81525090565b8152602001906001900390816107575790505b5090505f5b6007548110156108265760055f600783815481106107b9576107b96112fc565b5f9182526020808320909101548352828101939093526040918201902081516060810183528154815260018201546001600160a01b03169381019390935260020154908201528251839083908110610813576108136112fc565b6020908102919091010152600101610799565b50919050565b5f918252602082815260408084206001600160a01b0393909316845291905290205460ff1690565b5f5160206114c35f395f51905f5261086b81610f0d565b6040805160608101825260035480825260208083018781528385018781525f938452600292839052949092208351815591516001830155925186938201906108b390826113c3565b509050506003547f5beb4887c4386b11b6fceb907e01cdd7b0009c6604f5c478f541bbad4c42b00a82856040516108eb92919061147e565b60405180910390a260038054600480546001810182555f9182527f8a35acfbc15ff81a39ae7d344fd709f28e8600b4aa8c65c6b64bfe7fe36bd19b018290559091906109368361149e565b919050555050505050565b5f60025f8381526020019081526020015f206040518060600160405290815f82015481526020016001820154815260200160028201805461098190611346565b80601f01602080910402602001604051908101604052809291908181526020018280546109ad90611346565b80156109f85780601f106109cf576101008083540402835291602001916109f8565b820191905f5260205f20905b8154815290600101906020018083116109db57829003601f168201915b5050505050815250509050805f01515f03610a5a5760405162461bcd60e51b815260206004820152601760248201527f746869732061727469636c65206e6f742065786973747300000000000000000060448201526064015b60405180910390fd5b604080516060810182526006548082523360208084018281528486018881525f948552600583529386902094518555516001850180546001600160a01b0319166001600160a01b03928316179055925160029094019390935591840151925163e75c721d60e01b8152600481019290925260248201929092527f00000000000000000000000000000000000000000000000000000000000000009091169063e75c721d906044016020604051808303815f875af1158015610b1d573d5f5f3e3d5ffd5b505050506040513d601f19601f82011682018060405250810190610b419190611327565b50336001600160a01b03167f3bf8c1a17dc1f549fafe76c9b4bb3ca4835128042747a6e92e3c6bf99ae7e1e5838360400151604051610b8192919061147e565b60405180910390a260068054600780546001810182555f9182527fa66cc928b5edb82af9bd49922954155ab7b0942694bea4ce44661d9a8736c68801829055909190610bcc8361149e565b91905055505050565b6004546060905f9067ffffffffffffffff811115610bf557610bf5611152565b604051908082528060200260200182016040528015610c4857816020015b610c3560405180606001604052805f81526020015f8152602001606081525090565b815260200190600190039081610c135790505b5090505f5b6004548110156108265760025f60048381548110610c6d57610c6d6112fc565b905f5260205f20015481526020019081526020015f206040518060600160405290815f820154815260200160018201548152602001600282018054610cb190611346565b80601f0160208091040260200160405190810160405280929190818152602001828054610cdd90611346565b8015610d285780601f10610cff57610100808354040283529160200191610d28565b820191905f5260205f20905b815481529060010190602001808311610d0b57829003601f168201915b505050505081525050828281518110610d4357610d436112fc565b6020908102919091010152600101610c4d565b6040516370a0823160e01b81523060048201525f907f00000000000000000000000000000000000000000000000000000000000000006001600160a01b0316906370a0823190602401602060405180830381865afa158015610dba573d5f5f3e3d5ffd5b505050506040513d601f19601f82011682018060405250810190610dde9190611310565b905090565b5f82815260208190526040902060010154610dfd81610f0d565b6104538383610fa9565b6007818154811061041f575f80fd5b5f5160206114c35f395f51905f52610e2d81610f0d565b6001546040516001600160a01b03909116904780156108fc02915f818181858888f19350505050158015610715573d5f5f3e3d5ffd5b600260208190525f918252604090912080546001820154928201805491939291610e8c90611346565b80601f0160208091040260200160405190810160405280929190818152602001828054610eb890611346565b8015610f035780601f10610eda57610100808354040283529160200191610f03565b820191905f5260205f20905b815481529060010190602001808311610ee657829003601f168201915b5050505050905083565b610f178133611012565b50565b5f610f25838361082c565b610fa2575f838152602081815260408083206001600160a01b03861684529091529020805460ff19166001179055610f5a3390565b6001600160a01b0316826001600160a01b0316847f2f8788117e7eff1d82e926ec794901d17c78024a50270940304540a733656f0d60405160405180910390a450600161040a565b505f61040a565b5f610fb4838361082c565b15610fa2575f838152602081815260408083206001600160a01b0386168085529252808320805460ff1916905551339286917ff6391f5c32d9c69d2a47ea670b442974b53935d1edc7fd64eb21e047a839171b9190a450600161040a565b61101c828261082c565b6107155760405163e2517d3f60e01b81526001600160a01b038216600482015260248101839052604401610a51565b5f6020828403121561105b575f5ffd5b81356001600160e01b031981168114611072575f5ffd5b9392505050565b5f60208284031215611089575f5ffd5b5035919050565b80356001600160a01b03811681146110a6575f5ffd5b919050565b5f5f604083850312156110bc575f5ffd5b823591506110cc60208401611090565b90509250929050565b5f602082840312156110e5575f5ffd5b61107282611090565b602080825282518282018190525f918401906040840190835b81811015611147578351805184526020808201516001600160a01b0316818601526040918201519185019190915290930192606090920191600101611107565b509095945050505050565b634e487b7160e01b5f52604160045260245ffd5b5f5f60408385031215611177575f5ffd5b82359150602083013567ffffffffffffffff811115611194575f5ffd5b8301601f810185136111a4575f5ffd5b803567ffffffffffffffff8111156111be576111be611152565b604051601f8201601f19908116603f0116810167ffffffffffffffff811182821017156111ed576111ed611152565b604052818152828201602001871015611204575f5ffd5b816020840160208301375f602083830101528093505050509250929050565b5f81518084528060208401602086015e5f602082860101526020601f19601f83011685010191505092915050565b5f602082016020835280845180835260408501915060408160051b8601019250602086015f5b828110156112c957603f198786030184528151805186526020810151602087015260408101519050606060408701526112b36060870182611223565b9550506020938401939190910190600101611277565b50929695505050505050565b838152826020820152606060408201525f6112f36060830184611223565b95945050505050565b634e487b7160e01b5f52603260045260245ffd5b5f60208284031215611320575f5ffd5b5051919050565b5f60208284031215611337575f5ffd5b81518015158114611072575f5ffd5b600181811c9082168061135a57607f821691505b60208210810361082657634e487b7160e01b5f52602260045260245ffd5b601f82111561048c57805f5260205f20601f840160051c8101602085101561139d5750805b601f840160051c820191505b818110156113bc575f81556001016113a9565b5050505050565b815167ffffffffffffffff8111156113dd576113dd611152565b6113f1816113eb8454611346565b84611378565b6020601f821160018114611423575f831561140c5750848201515b5f19600385901b1c1916600184901b1784556113bc565b5f84815260208120601f198516915b828110156114525787850151825560209485019460019092019101611432565b508482101561146f57868401515f19600387901b60f8161c191681555b50505050600190811b01905550565b828152604060208201525f6114966040830184611223565b949350505050565b5f600182016114bb57634e487b7160e01b5f52601160045260245ffd5b506001019056fe9f2df0fed2c77648de5860a4cc508cd0818c85b8b8a1ab4ceeef8d981c8956a6a264697066735822122016c3439a1cf2c8792065984965ce2927827cfbbdd132148dbf55333502d7586964736f6c634300081c0033",
  "linkReferences": {},
  "deployedLinkReferences": {}
}