{
  "_format": "hh-sol-artifact-1",
  "contractName": "BlogShop",
  "sourceName": "contracts/BlogShop.sol",
  "abi": [
    {
      "inputs": [
        {
          "internalType": "contract JTCoin",
          "name": "_address",
          "type": "address"
        }
      ],
      "stateMutability": "nonpayable",
      "type": "constructor"
    },
    {
      "inputs": [],
      "name": "AccessControlBadConfirmation",
      "type": "error"
    },
    {
      "inputs": [
        {
          "internalType": "address",
          "name": "account",
          "type": "address"
        },
        {
          "internalType": "bytes32",
          "name": "neededRole",
          "type": "bytes32"
        }
      ],
      "name": "AccessControlUnauthorizedAccount",
      "type": "error"
    },
    {
      "anonymous": false,
      "inputs": [
        {
          "indexed": true,
          "internalType": "address",
          "name": "sender",
          "type": "address"
        },
        {
          "indexed": true,
          "internalType": "uint256",
          "name": "articleId",
          "type": "uint256"
        },
        {
          "indexed": false,
          "internalType": "string",
          "name": "title",
          "type": "string"
        }
      ],
      "name": "ArticleAdded",
      "type": "event"
    },
    {
      "anonymous": false,
      "inputs": [
        {
          "indexed": true,
          "internalType": "address",
          "name": "buyer",
          "type": "address"
        },
        {
          "indexed": false,
          "internalType": "uint256",
          "name": "articleId",
          "type": "uint256"
        },
        {
          "indexed": false,
          "internalType": "string",
          "name": "link",
          "type": "string"
        }
      ],
      "name": "ArticlePurchased",
      "type": "event"
    },
    {
      "anonymous": false,
      "inputs": [
        {
          "indexed": true,
          "internalType": "address",
          "name": "sender",
          "type": "address"
        }
      ],
      "name": "ClearArticles",
      "type": "event"
    },
    {
      "anonymous": false,
      "inputs": [
        {
          "indexed": true,
          "internalType": "address",
          "name": "sender",
          "type": "address"
        },
        {
          "indexed": true,
          "internalType": "uint256",
          "name": "articleId",
          "type": "uint256"
        },
        {
          "indexed": false,
          "internalType": "string",
          "name": "title",
          "type": "string"
        }
      ],
      "name": "RemovedArticle",
      "type": "event"
    },
    {
      "anonymous": false,
      "inputs": [
        {
          "indexed": true,
          "internalType": "bytes32",
          "name": "role",
          "type": "bytes32"
        },
        {
          "indexed": true,
          "internalType": "bytes32",
          "name": "previousAdminRole",
          "type": "bytes32"
        },
        {
          "indexed": true,
          "internalType": "bytes32",
          "name": "newAdminRole",
          "type": "bytes32"
        }
      ],
      "name": "RoleAdminChanged",
      "type": "event"
    },
    {
      "anonymous": false,
      "inputs": [
        {
          "indexed": true,
          "internalType": "bytes32",
          "name": "role",
          "type": "bytes32"
        },
        {
          "indexed": true,
          "internalType": "address",
          "name": "account",
          "type": "address"
        },
        {
          "indexed": true,
          "internalType": "address",
          "name": "sender",
          "type": "address"
        }
      ],
      "name": "RoleGranted",
      "type": "event"
    },
    {
      "anonymous": false,
      "inputs": [
        {
          "indexed": true,
          "internalType": "bytes32",
          "name": "role",
          "type": "bytes32"
        },
        {
          "indexed": true,
          "internalType": "address",
          "name": "account",
          "type": "address"
        },
        {
          "indexed": true,
          "internalType": "address",
          "name": "sender",
          "type": "address"
        }
      ],
      "name": "RoleRevoked",
      "type": "event"
    },
    {
      "inputs": [],
      "name": "DEFAULT_ADMIN_ROLE",
      "outputs": [
        {
          "internalType": "bytes32",
          "name": "",
          "type": "bytes32"
        }
      ],
      "stateMutability": "view",
      "type": "function"
    },
    {
      "inputs": [],
      "name": "MINTER_ROLE",
      "outputs": [
        {
          "internalType": "bytes32",
          "name": "",
          "type": "bytes32"
        }
      ],
      "stateMutability": "view",
      "type": "function"
    },
    {
      "inputs": [
        {
          "internalType": "uint256",
          "name": "price",
          "type": "uint256"
        },
        {
          "internalType": "string",
          "name": "title",
          "type": "string"
        },
        {
          "internalType": "string",
          "name": "description",
          "type": "string"
        },
        {
          "internalType": "string",
          "name": "image",
          "type": "string"
        },
        {
          "internalType": "string",
          "name": "link",
          "type": "string"
        },
        {
          "internalType": "string",
          "name": "createTime",
          "type": "string"
        }
      ],
      "name": "addArticle",
      "outputs": [],
      "stateMutability": "nonpayable",
      "type": "function"
    },
    {
      "inputs": [
        {
          "internalType": "uint256",
          "name": "",
          "type": "uint256"
        }
      ],
      "name": "articleIds",
      "outputs": [
        {
          "internalType": "uint256",
          "name": "",
          "type": "uint256"
        }
      ],
      "stateMutability": "view",
      "type": "function"
    },
    {
      "inputs": [
        {
          "internalType": "uint256",
          "name": "",
          "type": "uint256"
        }
      ],
      "name": "articles",
      "outputs": [
        {
          "internalType": "uint256",
          "name": "id",
          "type": "uint256"
        },
        {
          "internalType": "uint256",
          "name": "price",
          "type": "uint256"
        },
        {
          "internalType": "string",
          "name": "title",
          "type": "string"
        },
        {
          "internalType": "string",
          "name": "description",
          "type": "string"
        },
        {
          "internalType": "string",
          "name": "image",
          "type": "string"
        },
        {
          "internalType": "string",
          "name": "link",
          "type": "string"
        },
        {
          "internalType": "string",
          "name": "createTime",
          "type": "string"
        }
      ],
      "stateMutability": "view",
      "type": "function"
    },
    {
      "inputs": [],
      "name": "clearArticles",
      "outputs": [],
      "stateMutability": "nonpayable",
      "type": "function"
    },
    {
      "inputs": [],
      "name": "getAllArticles",
      "outputs": [
        {
          "components": [
            {
              "internalType": "uint256",
              "name": "id",
              "type": "uint256"
            },
            {
              "internalType": "uint256",
              "name": "price",
              "type": "uint256"
            },
            {
              "internalType": "string",
              "name": "title",
              "type": "string"
            },
            {
              "internalType": "string",
              "name": "description",
              "type": "string"
            },
            {
              "internalType": "string",
              "name": "image",
              "type": "string"
            },
            {
              "internalType": "string",
              "name": "link",
              "type": "string"
            },
            {
              "internalType": "string",
              "name": "createTime",
              "type": "string"
            }
          ],
          "internalType": "struct BlogShop.Article[]",
          "name": "",
          "type": "tuple[]"
        }
      ],
      "stateMutability": "view",
      "type": "function"
    },
    {
      "inputs": [],
      "name": "getAllPurchases",
      "outputs": [
        {
          "components": [
            {
              "internalType": "uint256",
              "name": "purchaseId",
              "type": "uint256"
            },
            {
              "internalType": "address",
              "name": "buyer",
              "type": "address"
            },
            {
              "internalType": "uint256",
              "name": "articleId",
              "type": "uint256"
            }
          ],
          "internalType": "struct BlogShop.Purchase[]",
          "name": "",
          "type": "tuple[]"
        }
      ],
      "stateMutability": "view",
      "type": "function"
    },
    {
      "inputs": [],
      "name": "getArticleCount",
      "outputs": [
        {
          "internalType": "uint256",
          "name": "",
          "type": "uint256"
        }
      ],
      "stateMutability": "view",
      "type": "function"
    },
    {
      "inputs": [],
      "name": "getArticleItemsForBuy",
      "outputs": [
        {
          "components": [
            {
              "components": [
                {
                  "internalType": "uint256",
                  "name": "id",
                  "type": "uint256"
                },
                {
                  "internalType": "uint256",
                  "name": "price",
                  "type": "uint256"
                },
                {
                  "internalType": "string",
                  "name": "title",
                  "type": "string"
                },
                {
                  "internalType": "string",
                  "name": "description",
                  "type": "string"
                },
                {
                  "internalType": "string",
                  "name": "image",
                  "type": "string"
                },
                {
                  "internalType": "string",
                  "name": "link",
                  "type": "string"
                },
                {
                  "internalType": "string",
                  "name": "createTime",
                  "type": "string"
                }
              ],
              "internalType": "struct BlogShop.Article",
              "name": "article",
              "type": "tuple"
            },
            {
              "internalType": "uint256",
              "name": "count",
              "type": "uint256"
            },
            {
              "internalType": "bool",
              "name": "isBought",
              "type": "bool"
            }
          ],
          "internalType": "struct BlogShop.PurchasedListItem[]",
          "name": "",
          "type": "tuple[]"
        }
      ],
      "stateMutability": "view",
      "type": "function"
    },
    {
      "inputs": [],
      "name": "getContractETH",
      "outputs": [
        {
          "internalType": "uint256",
          "name": "",
          "type": "uint256"
        }
      ],
      "stateMutability": "view",
      "type": "function"
    },
    {
      "inputs": [],
      "name": "getContractJT",
      "outputs": [
        {
          "internalType": "uint256",
          "name": "",
          "type": "uint256"
        }
      ],
      "stateMutability": "view",
      "type": "function"
    },
    {
      "inputs": [
        {
          "internalType": "address",
          "name": "buyer",
          "type": "address"
        }
      ],
      "name": "getPUrchaseByBuyer",
      "outputs": [
        {
          "components": [
            {
              "internalType": "uint256",
              "name": "purchaseId",
              "type": "uint256"
            },
            {
              "internalType": "address",
              "name": "buyer",
              "type": "address"
            },
            {
              "internalType": "uint256",
              "name": "articleId",
              "type": "uint256"
            }
          ],
          "internalType": "struct BlogShop.Purchase[]",
          "name": "",
          "type": "tuple[]"
        }
      ],
      "stateMutability": "view",
      "type": "function"
    },
    {
      "inputs": [],
      "name": "getPurchaseCount",
      "outputs": [
        {
          "internalType": "uint256",
          "name": "",
          "type": "uint256"
        }
      ],
      "stateMutability": "view",
      "type": "function"
    },
    {
      "inputs": [
        {
          "internalType": "bytes32",
          "name": "role",
          "type": "bytes32"
        }
      ],
      "name": "getRoleAdmin",
      "outputs": [
        {
          "internalType": "bytes32",
          "name": "",
          "type": "bytes32"
        }
      ],
      "stateMutability": "view",
      "type": "function"
    },
    {
      "inputs": [
        {
          "internalType": "bytes32",
          "name": "role",
          "type": "bytes32"
        },
        {
          "internalType": "address",
          "name": "account",
          "type": "address"
        }
      ],
      "name": "grantRole",
      "outputs": [],
      "stateMutability": "nonpayable",
      "type": "function"
    },
    {
      "inputs": [
        {
          "internalType": "bytes32",
          "name": "role",
          "type": "bytes32"
        },
        {
          "internalType": "address",
          "name": "account",
          "type": "address"
        }
      ],
      "name": "hasRole",
      "outputs": [
        {
          "internalType": "bool",
          "name": "",
          "type": "bool"
        }
      ],
      "stateMutability": "view",
      "type": "function"
    },
    {
      "inputs": [],
      "name": "nextArticleId",
      "outputs": [
        {
          "internalType": "uint256",
          "name": "",
          "type": "uint256"
        }
      ],
      "stateMutability": "view",
      "type": "function"
    },
    {
      "inputs": [],
      "name": "owner",
      "outputs": [
        {
          "internalType": "address",
          "name": "",
          "type": "address"
        }
      ],
      "stateMutability": "view",
      "type": "function"
    },
    {
      "inputs": [
        {
          "internalType": "uint256",
          "name": "articleId",
          "type": "uint256"
        }
      ],
      "name": "purchaseArticle",
      "outputs": [],
      "stateMutability": "nonpayable",
      "type": "function"
    },
    {
      "inputs": [
        {
          "internalType": "uint256",
          "name": "",
          "type": "uint256"
        }
      ],
      "name": "purchaseCount",
      "outputs": [
        {
          "internalType": "uint256",
          "name": "",
          "type": "uint256"
        }
      ],
      "stateMutability": "view",
      "type": "function"
    },
    {
      "inputs": [
        {
          "internalType": "uint256",
          "name": "",
          "type": "uint256"
        }
      ],
      "name": "purchaseIds",
      "outputs": [
        {
          "internalType": "uint256",
          "name": "",
          "type": "uint256"
        }
      ],
      "stateMutability": "view",
      "type": "function"
    },
    {
      "inputs": [
        {
          "internalType": "uint256",
          "name": "",
          "type": "uint256"
        }
      ],
      "name": "purchases",
      "outputs": [
        {
          "internalType": "uint256",
          "name": "purchaseId",
          "type": "uint256"
        },
        {
          "internalType": "address",
          "name": "buyer",
          "type": "address"
        },
        {
          "internalType": "uint256",
          "name": "articleId",
          "type": "uint256"
        }
      ],
      "stateMutability": "view",
      "type": "function"
    },
    {
      "inputs": [
        {
          "internalType": "uint256",
          "name": "articleId",
          "type": "uint256"
        }
      ],
      "name": "removeArticle",
      "outputs": [
        {
          "internalType": "bool",
          "name": "",
          "type": "bool"
        }
      ],
      "stateMutability": "nonpayable",
      "type": "function"
    },
    {
      "inputs": [
        {
          "internalType": "bytes32",
          "name": "role",
          "type": "bytes32"
        },
        {
          "internalType": "address",
          "name": "callerConfirmation",
          "type": "address"
        }
      ],
      "name": "renounceRole",
      "outputs": [],
      "stateMutability": "nonpayable",
      "type": "function"
    },
    {
      "inputs": [
        {
          "internalType": "bytes32",
          "name": "role",
          "type": "bytes32"
        },
        {
          "internalType": "address",
          "name": "account",
          "type": "address"
        }
      ],
      "name": "revokeRole",
      "outputs": [],
      "stateMutability": "nonpayable",
      "type": "function"
    },
    {
      "inputs": [
        {
          "internalType": "uint256",
          "name": "articleId",
          "type": "uint256"
        },
        {
          "internalType": "string",
          "name": "link",
          "type": "string"
        }
      ],
      "name": "setLink",
      "outputs": [
        {
          "internalType": "bool",
          "name": "",
          "type": "bool"
        }
      ],
      "stateMutability": "nonpayable",
      "type": "function"
    },
    {
      "inputs": [
        {
          "internalType": "uint256",
          "name": "articleId",
          "type": "uint256"
        },
        {
          "internalType": "uint256",
          "name": "price",
          "type": "uint256"
        }
      ],
      "name": "setPrice",
      "outputs": [
        {
          "internalType": "bool",
          "name": "",
          "type": "bool"
        }
      ],
      "stateMutability": "nonpayable",
      "type": "function"
    },
    {
      "inputs": [
        {
          "internalType": "uint256",
          "name": "articleId",
          "type": "uint256"
        },
        {
          "internalType": "string",
          "name": "title",
          "type": "string"
        }
      ],
      "name": "setTitle",
      "outputs": [
        {
          "internalType": "bool",
          "name": "",
          "type": "bool"
        }
      ],
      "stateMutability": "nonpayable",
      "type": "function"
    },
    {
      "inputs": [
        {
          "internalType": "bytes4",
          "name": "interfaceId",
          "type": "bytes4"
        }
      ],
      "name": "supportsInterface",
      "outputs": [
        {
          "internalType": "bool",
          "name": "",
          "type": "bool"
        }
      ],
      "stateMutability": "view",
      "type": "function"
    },
    {
      "inputs": [],
      "name": "tokenAddress",
      "outputs": [
        {
          "internalType": "contract JTCoin",
          "name": "",
          "type": "address"
        }
      ],
      "stateMutability": "view",
      "type": "function"
    },
    {
      "inputs": [],
      "name": "withdrawETH",
      "outputs": [],
      "stateMutability": "nonpayable",
      "type": "function"
    },
    {
      "inputs": [],
      "name": "withdrawJT",
      "outputs": [],
      "stateMutability": "nonpayable",
      "type": "function"
    }
  ],
  "bytecode": "0x60a060405260016003556001600655348015610019575f5ffd5b506040516137b63803806137b683398101604081905261003891610135565b6001600160a01b038116608052600180546001600160a01b03191633908117909155610085907f9f2df0fed2c77648de5860a4cc508cd0818c85b8b8a1ab4ceeef8d981c8956a69061008c565b5050610162565b5f828152602081815260408083206001600160a01b038516845290915281205460ff1661012c575f838152602081815260408083206001600160a01b03861684529091529020805460ff191660011790556100e43390565b6001600160a01b0316826001600160a01b0316847f2f8788117e7eff1d82e926ec794901d17c78024a50270940304540a733656f0d60405160405180910390a450600161012f565b505f5b92915050565b5f60208284031215610145575f5ffd5b81516001600160a01b038116811461015b575f5ffd5b9392505050565b60805161361961019d5f395f81816103c501528181610a8c01528181611cae01528181611d8301528181611e67015261241301526136195ff3fe608060405234801561000f575f5ffd5b50600436106101f2575f3560e01c80638da5cb5b11610114578063becd283f116100a9578063d65fb16011610079578063d65fb16014610475578063e086e5ec14610488578063e899d5ff14610490578063edcfafe614610498578063f7d97577146104be575f5ffd5b8063becd283f14610433578063cf4e3aca1461043b578063d53913931461044e578063d547741f14610462575f5ffd5b8063aa8a45dc116100e4578063aa8a45dc146103ee578063ac4f861a14610403578063b44d310b14610416578063b5239bbe1461042b575f5ffd5b80638da5cb5b1461038257806391d14854146103ad5780639d76ea58146103c0578063a217fddf146103e7575f5ffd5b8063481fc1b01161018a5780638258cbbd1161015a5780638258cbbd146103115780638392fe311461031757806384134d221461037157806385c3ab5414610379575f5ffd5b8063481fc1b0146102db57806350b3967d146102e35780635102bc9d146102eb5780637e28ee18146102fe575f5ffd5b80632f2ff15d116101c55780632f2ff15d146102745780633319fe661461028957806336568abe146102a8578063394e858b146102bb575f5ffd5b806301ffc9a7146101f65780630aa2f02b1461021e578063248a9ca3146102315780632de6f5b514610261575b5f5ffd5b610209610204366004612eac565b6104d1565b60405190151581526020015b60405180910390f35b61020961022c366004612f77565b610507565b61025361023f366004612fba565b5f9081526020819052604090206001015490565b604051908152602001610215565b61025361026f366004612fba565b610872565b610287610282366004612fec565b610891565b005b610253610297366004612fba565b60086020525f908152604090205481565b6102876102b6366004612fec565b6108bb565b6102ce6102c9366004613016565b6108f3565b604051610215919061302f565b610287610a53565b6102ce610b7a565b6102096102f9366004612f77565b610c8c565b61020961030c366004612fba565b610fe3565b47610253565b61034e610325366004612fba565b60056020525f908152604090208054600182015460029092015490916001600160a01b03169083565b604080519384526001600160a01b03909216602084015290820152606001610215565b6102876113cc565b61025360035481565b600154610395906001600160a01b031681565b6040516001600160a01b039091168152602001610215565b6102096103bb366004612fec565b6114af565b6103957f000000000000000000000000000000000000000000000000000000000000000081565b6102535f81565b6103f66114d7565b6040516102159190613159565b610287610411366004612fba565b61196d565b61041e612020565b60405161021591906131de565b6102536123fc565b600754610253565b610287610449366004613235565b612489565b6102535f5160206135c45f395f51905f5281565b610287610470366004612fec565b6125f5565b610253610483366004612fba565b612619565b610287612628565b600454610253565b6104ab6104a6366004612fba565b612675565b604051610215979695949392919061331b565b6102096104cc366004613395565b61294f565b5f6001600160e01b03198216637965db0b60e01b148061050157506301ffc9a760e01b6001600160e01b03198316145b92915050565b5f5f5160206135c45f395f51905f5261051f81612ca8565b5f60025f8681526020019081526020015f206040518060e00160405290815f82015481526020016001820154815260200160028201805461055f906133b5565b80601f016020809104026020016040519081016040528092919081815260200182805461058b906133b5565b80156105d65780601f106105ad576101008083540402835291602001916105d6565b820191905f5260205f20905b8154815290600101906020018083116105b957829003601f168201915b505050505081526020016003820180546105ef906133b5565b80601f016020809104026020016040519081016040528092919081815260200182805461061b906133b5565b80156106665780601f1061063d57610100808354040283529160200191610666565b820191905f5260205f20905b81548152906001019060200180831161064957829003601f168201915b5050505050815260200160048201805461067f906133b5565b80601f01602080910402602001604051908101604052809291908181526020018280546106ab906133b5565b80156106f65780601f106106cd576101008083540402835291602001916106f6565b820191905f5260205f20905b8154815290600101906020018083116106d957829003601f168201915b5050505050815260200160058201805461070f906133b5565b80601f016020809104026020016040519081016040528092919081815260200182805461073b906133b5565b80156107865780601f1061075d57610100808354040283529160200191610786565b820191905f5260205f20905b81548152906001019060200180831161076957829003601f168201915b5050505050815260200160068201805461079f906133b5565b80601f01602080910402602001604051908101604052809291908181526020018280546107cb906133b5565b80156108165780601f106107ed57610100808354040283529160200191610816565b820191905f5260205f20905b8154815290600101906020018083116107f957829003601f168201915b5050505050815250509050805f01515f0361084c5760405162461bcd60e51b8152600401610843906133e7565b60405180910390fd5b5f8581526002602052604090206005016108668582613469565b50600195945050505050565b60048181548110610881575f80fd5b5f91825260209091200154905081565b5f828152602081905260409020600101546108ab81612ca8565b6108b58383612cb5565b50505050565b6001600160a01b03811633146108e45760405163334bd91960e11b815260040160405180910390fd5b6108ee8282612d44565b505050565b6007546060905f906001600160401b0381111561091257610912612eda565b60405190808252806020026020018201604052801561096d57816020015b61095a60405180606001604052805f81526020015f6001600160a01b031681526020015f81525090565b8152602001906001900390816109305790505b5090505f5b600754811015610a4c57836001600160a01b031660055f6007848154811061099c5761099c613523565b5f91825260208083209091015483528201929092526040019020600101546001600160a01b031603610a445760055f600783815481106109de576109de613523565b5f9182526020808320909101548352828101939093526040918201902081516060810183528154815260018201546001600160a01b03169381019390935260020154908201528251839083908110610a3857610a38613523565b60200260200101819052505b600101610972565b5092915050565b5f5160206135c45f395f51905f52610a6a81612ca8565b6001546040516370a0823160e01b815230600482018190526001600160a01b037f00000000000000000000000000000000000000000000000000000000000000008116936323b872dd9391169084906370a0823190602401602060405180830381865afa158015610add573d5f5f3e3d5ffd5b505050506040513d601f19601f82011682018060405250810190610b019190613537565b6040516001600160e01b031960e086901b1681526001600160a01b03938416600482015292909116602483015260448201526064016020604051808303815f875af1158015610b52573d5f5f3e3d5ffd5b505050506040513d601f19601f82011682018060405250810190610b76919061354e565b5050565b6007546060905f906001600160401b03811115610b9957610b99612eda565b604051908082528060200260200182016040528015610bf457816020015b610be160405180606001604052805f81526020015f6001600160a01b031681526020015f81525090565b815260200190600190039081610bb75790505b5090505f5b600754811015610c865760055f60078381548110610c1957610c19613523565b5f9182526020808320909101548352828101939093526040918201902081516060810183528154815260018201546001600160a01b03169381019390935260020154908201528251839083908110610c7357610c73613523565b6020908102919091010152600101610bf9565b50919050565b5f5f5160206135c45f395f51905f52610ca481612ca8565b5f60025f8681526020019081526020015f206040518060e00160405290815f820154815260200160018201548152602001600282018054610ce4906133b5565b80601f0160208091040260200160405190810160405280929190818152602001828054610d10906133b5565b8015610d5b5780601f10610d3257610100808354040283529160200191610d5b565b820191905f5260205f20905b815481529060010190602001808311610d3e57829003601f168201915b50505050508152602001600382018054610d74906133b5565b80601f0160208091040260200160405190810160405280929190818152602001828054610da0906133b5565b8015610deb5780601f10610dc257610100808354040283529160200191610deb565b820191905f5260205f20905b815481529060010190602001808311610dce57829003601f168201915b50505050508152602001600482018054610e04906133b5565b80601f0160208091040260200160405190810160405280929190818152602001828054610e30906133b5565b8015610e7b5780601f10610e5257610100808354040283529160200191610e7b565b820191905f5260205f20905b815481529060010190602001808311610e5e57829003601f168201915b50505050508152602001600582018054610e94906133b5565b80601f0160208091040260200160405190810160405280929190818152602001828054610ec0906133b5565b8015610f0b5780601f10610ee257610100808354040283529160200191610f0b565b820191905f5260205f20905b815481529060010190602001808311610eee57829003601f168201915b50505050508152602001600682018054610f24906133b5565b80601f0160208091040260200160405190810160405280929190818152602001828054610f50906133b5565b8015610f9b5780601f10610f7257610100808354040283529160200191610f9b565b820191905f5260205f20905b815481529060010190602001808311610f7e57829003601f168201915b5050505050815250509050805f01515f03610fc85760405162461bcd60e51b8152600401610843906133e7565b5f858152600260208190526040909120016108668582613469565b5f5f5160206135c45f395f51905f52610ffb81612ca8565b5f60025f8581526020019081526020015f206040518060e00160405290815f82015481526020016001820154815260200160028201805461103b906133b5565b80601f0160208091040260200160405190810160405280929190818152602001828054611067906133b5565b80156110b25780601f10611089576101008083540402835291602001916110b2565b820191905f5260205f20905b81548152906001019060200180831161109557829003601f168201915b505050505081526020016003820180546110cb906133b5565b80601f01602080910402602001604051908101604052809291908181526020018280546110f7906133b5565b80156111425780601f1061111957610100808354040283529160200191611142565b820191905f5260205f20905b81548152906001019060200180831161112557829003601f168201915b5050505050815260200160048201805461115b906133b5565b80601f0160208091040260200160405190810160405280929190818152602001828054611187906133b5565b80156111d25780601f106111a9576101008083540402835291602001916111d2565b820191905f5260205f20905b8154815290600101906020018083116111b557829003601f168201915b505050505081526020016005820180546111eb906133b5565b80601f0160208091040260200160405190810160405280929190818152602001828054611217906133b5565b80156112625780601f1061123957610100808354040283529160200191611262565b820191905f5260205f20905b81548152906001019060200180831161124557829003601f168201915b5050505050815260200160068201805461127b906133b5565b80601f01602080910402602001604051908101604052809291908181526020018280546112a7906133b5565b80156112f25780601f106112c9576101008083540402835291602001916112f2565b820191905f5260205f20905b8154815290600101906020018083116112d557829003601f168201915b5050505050815250509050805f01515f0361131f5760405162461bcd60e51b8152600401610843906133e7565b5f848152600260208190526040822082815560018101839055919061134690830182612de6565b611353600383015f612de6565b611360600483015f612de6565b61136d600583015f612de6565b61137a600683015f612de6565b505083336001600160a01b03167f12f3e16ad874330a84c3a09c5aa9cf71a59f7d0c4b6a441c02b2e9cb5c4f27d583604001516040516113ba919061356d565b60405180910390a35060019392505050565b5f5160206135c45f395f51905f526113e381612ca8565b5f5b6004548110156114765760025f6004838154811061140557611405613523565b905f5260205f20015481526020019081526020015f205f5f82015f9055600182015f9055600282015f6114389190612de6565b611445600383015f612de6565b611452600483015f612de6565b61145f600583015f612de6565b61146c600683015f612de6565b50506001016113e5565b5061148260045f612e1d565b60405133907f8f77e2ca50fed11ad8bdcdf5b4cb5c55f517dcadf16f0969f92324af3dea1dba905f90a250565b5f918252602082815260408084206001600160a01b0393909316845291905290205460ff1690565b6004546060905f906001600160401b038111156114f6576114f6612eda565b60405190808252806020026020018201604052801561152f57816020015b61151c612e38565b8152602001906001900390816115145790505b5090505f5b6004548110156118c557604051806060016040528060025f6004858154811061155f5761155f613523565b905f5260205f20015481526020019081526020015f206040518060e00160405290815f8201548152602001600182015481526020016002820180546115a3906133b5565b80601f01602080910402602001604051908101604052809291908181526020018280546115cf906133b5565b801561161a5780601f106115f15761010080835404028352916020019161161a565b820191905f5260205f20905b8154815290600101906020018083116115fd57829003601f168201915b50505050508152602001600382018054611633906133b5565b80601f016020809104026020016040519081016040528092919081815260200182805461165f906133b5565b80156116aa5780601f10611681576101008083540402835291602001916116aa565b820191905f5260205f20905b81548152906001019060200180831161168d57829003601f168201915b505050505081526020016004820180546116c3906133b5565b80601f01602080910402602001604051908101604052809291908181526020018280546116ef906133b5565b801561173a5780601f106117115761010080835404028352916020019161173a565b820191905f5260205f20905b81548152906001019060200180831161171d57829003601f168201915b50505050508152602001600582018054611753906133b5565b80601f016020809104026020016040519081016040528092919081815260200182805461177f906133b5565b80156117ca5780601f106117a1576101008083540402835291602001916117ca565b820191905f5260205f20905b8154815290600101906020018083116117ad57829003601f168201915b505050505081526020016006820180546117e3906133b5565b80601f016020809104026020016040519081016040528092919081815260200182805461180f906133b5565b801561185a5780601f106118315761010080835404028352916020019161185a565b820191905f5260205f20905b81548152906001019060200180831161183d57829003601f168201915b505050505081525050815260200160085f6004858154811061187e5761187e613523565b905f5260205f20015481526020019081526020015f205481526020015f15158152508282815181106118b2576118b2613523565b6020908102919091010152600101611534565b505f6118d0336108f3565b90505f5b8151811015611965575f5b835181101561195c578282815181106118fa576118fa613523565b60200260200101516040015184828151811061191857611918613523565b60200260200101515f01515f01510361195457600184828151811061193f5761193f613523565b60209081029190910101519015156040909101525b6001016118df565b506001016118d4565b509092915050565b5f60025f8381526020019081526020015f206040518060e00160405290815f8201548152602001600182015481526020016002820180546119ad906133b5565b80601f01602080910402602001604051908101604052809291908181526020018280546119d9906133b5565b8015611a245780601f106119fb57610100808354040283529160200191611a24565b820191905f5260205f20905b815481529060010190602001808311611a0757829003601f168201915b50505050508152602001600382018054611a3d906133b5565b80601f0160208091040260200160405190810160405280929190818152602001828054611a69906133b5565b8015611ab45780601f10611a8b57610100808354040283529160200191611ab4565b820191905f5260205f20905b815481529060010190602001808311611a9757829003601f168201915b50505050508152602001600482018054611acd906133b5565b80601f0160208091040260200160405190810160405280929190818152602001828054611af9906133b5565b8015611b445780601f10611b1b57610100808354040283529160200191611b44565b820191905f5260205f20905b815481529060010190602001808311611b2757829003601f168201915b50505050508152602001600582018054611b5d906133b5565b80601f0160208091040260200160405190810160405280929190818152602001828054611b89906133b5565b8015611bd45780601f10611bab57610100808354040283529160200191611bd4565b820191905f5260205f20905b815481529060010190602001808311611bb757829003601f168201915b50505050508152602001600682018054611bed906133b5565b80601f0160208091040260200160405190810160405280929190818152602001828054611c19906133b5565b8015611c645780601f10611c3b57610100808354040283529160200191611c64565b820191905f5260205f20905b815481529060010190602001808311611c4757829003601f168201915b5050505050815250509050805f01515f03611c915760405162461bcd60e51b8152600401610843906133e7565b604051636eb1769f60e11b81523360048201523060248201525f907f00000000000000000000000000000000000000000000000000000000000000006001600160a01b03169063dd62ed3e90604401602060405180830381865afa158015611cfb573d5f5f3e3d5ffd5b505050506040513d601f19601f82011682018060405250810190611d1f9190613537565b90508160200151811015611d6c5760405162461bcd60e51b81526020600482015260146024820152730c2d8d8deeec2dcc6ca40dcdee840cadcdeeaced60631b6044820152606401610843565b6040516370a0823160e01b81523360048201525f907f00000000000000000000000000000000000000000000000000000000000000006001600160a01b0316906370a0823190602401602060405180830381865afa158015611dd0573d5f5f3e3d5ffd5b505050506040513d601f19601f82011682018060405250810190611df49190613537565b90508260200151811015611e3f5760405162461bcd60e51b81526020600482015260126024820152710c4c2d8c2dcc6ca40dcdee840cadcdeeaced60731b6044820152606401610843565b60208301516040516323b872dd60e01b815233600482015230602482015260448101919091527f00000000000000000000000000000000000000000000000000000000000000006001600160a01b0316906323b872dd906064016020604051808303815f875af1158015611eb5573d5f5f3e3d5ffd5b505050506040513d601f19601f82011682018060405250810190611ed9919061354e565b611f1b5760405162461bcd60e51b81526020600482015260136024820152721d1c985b9cd9995c919c9bdb4819985a5b1959606a1b6044820152606401610843565b604080516060810182526006548082523360208084019182528385018981525f938452600582528584209451855591516001850180546001600160a01b0319166001600160a01b0390921691909117905590516002909301929092558681526008909152908120805491611f8e8361357f565b909155505060a083015160405133917f3bf8c1a17dc1f549fafe76c9b4bb3ca4835128042747a6e92e3c6bf99ae7e1e591611fca9188916135a3565b60405180910390a260068054600780546001810182555f9182527fa66cc928b5edb82af9bd49922954155ab7b0942694bea4ce44661d9a8736c688018290559091906120158361357f565b919050555050505050565b6004546060905f906001600160401b0381111561203f5761203f612eda565b6040519080825280602002602001820160405280156120ae57816020015b61209b6040518060e001604052805f81526020015f815260200160608152602001606081526020016060815260200160608152602001606081525090565b81526020019060019003908161205d5790505b5090505f5b600454811015610c865760025f600483815481106120d3576120d3613523565b905f5260205f20015481526020019081526020015f206040518060e00160405290815f820154815260200160018201548152602001600282018054612117906133b5565b80601f0160208091040260200160405190810160405280929190818152602001828054612143906133b5565b801561218e5780601f106121655761010080835404028352916020019161218e565b820191905f5260205f20905b81548152906001019060200180831161217157829003601f168201915b505050505081526020016003820180546121a7906133b5565b80601f01602080910402602001604051908101604052809291908181526020018280546121d3906133b5565b801561221e5780601f106121f55761010080835404028352916020019161221e565b820191905f5260205f20905b81548152906001019060200180831161220157829003601f168201915b50505050508152602001600482018054612237906133b5565b80601f0160208091040260200160405190810160405280929190818152602001828054612263906133b5565b80156122ae5780601f10612285576101008083540402835291602001916122ae565b820191905f5260205f20905b81548152906001019060200180831161229157829003601f168201915b505050505081526020016005820180546122c7906133b5565b80601f01602080910402602001604051908101604052809291908181526020018280546122f3906133b5565b801561233e5780601f106123155761010080835404028352916020019161233e565b820191905f5260205f20905b81548152906001019060200180831161232157829003601f168201915b50505050508152602001600682018054612357906133b5565b80601f0160208091040260200160405190810160405280929190818152602001828054612383906133b5565b80156123ce5780601f106123a5576101008083540402835291602001916123ce565b820191905f5260205f20905b8154815290600101906020018083116123b157829003601f168201915b5050505050815250508282815181106123e9576123e9613523565b60209081029190910101526001016120b3565b6040516370a0823160e01b81523060048201525f907f00000000000000000000000000000000000000000000000000000000000000006001600160a01b0316906370a0823190602401602060405180830381865afa158015612460573d5f5f3e3d5ffd5b505050506040513d601f19601f820116820180604052508101906124849190613537565b905090565b5f5160206135c45f395f51905f526124a081612ca8565b6040805160e08101825260035480825260208083018b81528385018b8152606085018b9052608085018a905260a0850189905260c085018890525f938452600292839052949092208351815591516001830155925191928392908201906125079082613469565b506060820151600382019061251c9082613469565b50608082015160048201906125319082613469565b5060a082015160058201906125469082613469565b5060c0820151600682019061255b9082613469565b50905050600354336001600160a01b03167f1639c55ef5751e93967738233e65f0b533e4f2eb0d18c8e435ed55dc61d87abc8960405161259b919061356d565b60405180910390a360038054600480546001810182555f9182527f8a35acfbc15ff81a39ae7d344fd709f28e8600b4aa8c65c6b64bfe7fe36bd19b018290559091906125e68361357f565b91905055505050505050505050565b5f8281526020819052604090206001015461260f81612ca8565b6108b58383612d44565b60078181548110610881575f80fd5b5f5160206135c45f395f51905f5261263f81612ca8565b6001546040516001600160a01b03909116904780156108fc02915f818181858888f19350505050158015610b76573d5f5f3e3d5ffd5b600260208190525f91825260409091208054600182015492820180549193929161269e906133b5565b80601f01602080910402602001604051908101604052809291908181526020018280546126ca906133b5565b80156127155780601f106126ec57610100808354040283529160200191612715565b820191905f5260205f20905b8154815290600101906020018083116126f857829003601f168201915b50505050509080600301805461272a906133b5565b80601f0160208091040260200160405190810160405280929190818152602001828054612756906133b5565b80156127a15780601f10612778576101008083540402835291602001916127a1565b820191905f5260205f20905b81548152906001019060200180831161278457829003601f168201915b5050505050908060040180546127b6906133b5565b80601f01602080910402602001604051908101604052809291908181526020018280546127e2906133b5565b801561282d5780601f106128045761010080835404028352916020019161282d565b820191905f5260205f20905b81548152906001019060200180831161281057829003601f168201915b505050505090806005018054612842906133b5565b80601f016020809104026020016040519081016040528092919081815260200182805461286e906133b5565b80156128b95780601f10612890576101008083540402835291602001916128b9565b820191905f5260205f20905b81548152906001019060200180831161289c57829003601f168201915b5050505050908060060180546128ce906133b5565b80601f01602080910402602001604051908101604052809291908181526020018280546128fa906133b5565b80156129455780601f1061291c57610100808354040283529160200191612945565b820191905f5260205f20905b81548152906001019060200180831161292857829003601f168201915b5050505050905087565b5f5f5160206135c45f395f51905f5261296781612ca8565b5f60025f8681526020019081526020015f206040518060e00160405290815f8201548152602001600182015481526020016002820180546129a7906133b5565b80601f01602080910402602001604051908101604052809291908181526020018280546129d3906133b5565b8015612a1e5780601f106129f557610100808354040283529160200191612a1e565b820191905f5260205f20905b815481529060010190602001808311612a0157829003601f168201915b50505050508152602001600382018054612a37906133b5565b80601f0160208091040260200160405190810160405280929190818152602001828054612a63906133b5565b8015612aae5780601f10612a8557610100808354040283529160200191612aae565b820191905f5260205f20905b815481529060010190602001808311612a9157829003601f168201915b50505050508152602001600482018054612ac7906133b5565b80601f0160208091040260200160405190810160405280929190818152602001828054612af3906133b5565b8015612b3e5780601f10612b1557610100808354040283529160200191612b3e565b820191905f5260205f20905b815481529060010190602001808311612b2157829003601f168201915b50505050508152602001600582018054612b57906133b5565b80601f0160208091040260200160405190810160405280929190818152602001828054612b83906133b5565b8015612bce5780601f10612ba557610100808354040283529160200191612bce565b820191905f5260205f20905b815481529060010190602001808311612bb157829003601f168201915b50505050508152602001600682018054612be7906133b5565b80601f0160208091040260200160405190810160405280929190818152602001828054612c13906133b5565b8015612c5e5780601f10612c3557610100808354040283529160200191612c5e565b820191905f5260205f20905b815481529060010190602001808311612c4157829003601f168201915b5050505050815250509050805f01515f03612c8b5760405162461bcd60e51b8152600401610843906133e7565b5050505f9182526002602052604090912060019081019190915590565b612cb28133612dad565b50565b5f612cc083836114af565b612d3d575f838152602081815260408083206001600160a01b03861684529091529020805460ff19166001179055612cf53390565b6001600160a01b0316826001600160a01b0316847f2f8788117e7eff1d82e926ec794901d17c78024a50270940304540a733656f0d60405160405180910390a4506001610501565b505f610501565b5f612d4f83836114af565b15612d3d575f838152602081815260408083206001600160a01b0386168085529252808320805460ff1916905551339286917ff6391f5c32d9c69d2a47ea670b442974b53935d1edc7fd64eb21e047a839171b9190a4506001610501565b612db782826114af565b610b765760405163e2517d3f60e01b81526001600160a01b038216600482015260248101839052604401610843565b508054612df2906133b5565b5f825580601f10612e01575050565b601f0160209004905f5260205f2090810190612cb29190612e94565b5080545f8255905f5260205f2090810190612cb29190612e94565b6040518060600160405280612e816040518060e001604052805f81526020015f815260200160608152602001606081526020016060815260200160608152602001606081525090565b81525f6020820181905260409091015290565b5b80821115612ea8575f8155600101612e95565b5090565b5f60208284031215612ebc575f5ffd5b81356001600160e01b031981168114612ed3575f5ffd5b9392505050565b634e487b7160e01b5f52604160045260245ffd5b5f82601f830112612efd575f5ffd5b81356001600160401b03811115612f1657612f16612eda565b604051601f8201601f19908116603f011681016001600160401b0381118282101715612f4457612f44612eda565b604052818152838201602001851015612f5b575f5ffd5b816020850160208301375f918101602001919091529392505050565b5f5f60408385031215612f88575f5ffd5b8235915060208301356001600160401b03811115612fa4575f5ffd5b612fb085828601612eee565b9150509250929050565b5f60208284031215612fca575f5ffd5b5035919050565b80356001600160a01b0381168114612fe7575f5ffd5b919050565b5f5f60408385031215612ffd575f5ffd5b8235915061300d60208401612fd1565b90509250929050565b5f60208284031215613026575f5ffd5b612ed382612fd1565b602080825282518282018190525f918401906040840190835b81811015613088578351805184526020808201516001600160a01b0316818601526040918201519185019190915290930192606090920191600101613048565b509095945050505050565b5f81518084528060208401602086015e5f602082860101526020601f19601f83011685010191505092915050565b80518252602081015160208301525f604082015160e060408501526130e960e0850182613093565b9050606083015184820360608601526131028282613093565b9150506080830151848203608086015261311c8282613093565b91505060a083015184820360a08601526131368282613093565b91505060c083015184820360c08601526131508282613093565b95945050505050565b5f602082016020835280845180835260408501915060408160051b8601019250602086015f5b828110156131d257603f1987860301845281518051606087526131a560608801826130c1565b6020838101518982015260409384015115159390980192909252509493840193919091019060010161317f565b50929695505050505050565b5f602082016020835280845180835260408501915060408160051b8601019250602086015f5b828110156131d257603f198786030184526132208583516130c1565b94506020938401939190910190600101613204565b5f5f5f5f5f5f60c0878903121561324a575f5ffd5b8635955060208701356001600160401b03811115613266575f5ffd5b61327289828a01612eee565b95505060408701356001600160401b0381111561328d575f5ffd5b61329989828a01612eee565b94505060608701356001600160401b038111156132b4575f5ffd5b6132c089828a01612eee565b93505060808701356001600160401b038111156132db575f5ffd5b6132e789828a01612eee565b92505060a08701356001600160401b03811115613302575f5ffd5b61330e89828a01612eee565b9150509295509295509295565b87815286602082015260e060408201525f61333960e0830188613093565b828103606084015261334b8188613093565b9050828103608084015261335f8187613093565b905082810360a08401526133738186613093565b905082810360c08401526133878185613093565b9a9950505050505050505050565b5f5f604083850312156133a6575f5ffd5b50508035926020909101359150565b600181811c908216806133c957607f821691505b602082108103610c8657634e487b7160e01b5f52602260045260245ffd5b60208082526017908201527f746869732061727469636c65206e6f7420657869737473000000000000000000604082015260600190565b601f8211156108ee57805f5260205f20601f840160051c810160208510156134435750805b601f840160051c820191505b81811015613462575f815560010161344f565b5050505050565b81516001600160401b0381111561348257613482612eda565b6134968161349084546133b5565b8461341e565b6020601f8211600181146134c8575f83156134b15750848201515b5f19600385901b1c1916600184901b178455613462565b5f84815260208120601f198516915b828110156134f757878501518255602094850194600190920191016134d7565b508482101561351457868401515f19600387901b60f8161c191681555b50505050600190811b01905550565b634e487b7160e01b5f52603260045260245ffd5b5f60208284031215613547575f5ffd5b5051919050565b5f6020828403121561355e575f5ffd5b81518015158114612ed3575f5ffd5b602081525f612ed36020830184613093565b5f6001820161359c57634e487b7160e01b5f52601160045260245ffd5b5060010190565b828152604060208201525f6135bb6040830184613093565b94935050505056fe9f2df0fed2c77648de5860a4cc508cd0818c85b8b8a1ab4ceeef8d981c8956a6a26469706673582212202ce9a800e328cae25da953acbfa7f58dd98ef1704b02f26d606db6e51deae4e364736f6c634300081c0033",
  "linkReferences": {},
  "deployedLinkReferences": {}
}