{
  "_format": "hh-sol-artifact-1",
  "contractName": "BlogShop",
  "sourceName": "contracts/BlogShop.sol",
  "abi": [
    {
      "inputs": [
        {
          "internalType": "contract JTCoin",
          "name": "_address",
          "type": "address"
        }
      ],
      "stateMutability": "nonpayable",
      "type": "constructor"
    },
    {
      "inputs": [],
      "name": "AccessControlBadConfirmation",
      "type": "error"
    },
    {
      "inputs": [
        {
          "internalType": "address",
          "name": "account",
          "type": "address"
        },
        {
          "internalType": "bytes32",
          "name": "neededRole",
          "type": "bytes32"
        }
      ],
      "name": "AccessControlUnauthorizedAccount",
      "type": "error"
    },
    {
      "anonymous": false,
      "inputs": [
        {
          "indexed": true,
          "internalType": "address",
          "name": "sender",
          "type": "address"
        },
        {
          "indexed": true,
          "internalType": "uint256",
          "name": "articleId",
          "type": "uint256"
        },
        {
          "indexed": false,
          "internalType": "string",
          "name": "title",
          "type": "string"
        }
      ],
      "name": "ArticleAdded",
      "type": "event"
    },
    {
      "anonymous": false,
      "inputs": [
        {
          "indexed": true,
          "internalType": "address",
          "name": "buyer",
          "type": "address"
        },
        {
          "indexed": false,
          "internalType": "uint256",
          "name": "articleId",
          "type": "uint256"
        },
        {
          "indexed": false,
          "internalType": "string",
          "name": "link",
          "type": "string"
        }
      ],
      "name": "ArticlePurchased",
      "type": "event"
    },
    {
      "anonymous": false,
      "inputs": [
        {
          "indexed": true,
          "internalType": "address",
          "name": "sender",
          "type": "address"
        }
      ],
      "name": "ClearArticles",
      "type": "event"
    },
    {
      "anonymous": false,
      "inputs": [
        {
          "indexed": true,
          "internalType": "address",
          "name": "sender",
          "type": "address"
        },
        {
          "indexed": true,
          "internalType": "uint256",
          "name": "articleId",
          "type": "uint256"
        },
        {
          "indexed": false,
          "internalType": "string",
          "name": "title",
          "type": "string"
        }
      ],
      "name": "RemovedArticle",
      "type": "event"
    },
    {
      "anonymous": false,
      "inputs": [
        {
          "indexed": true,
          "internalType": "bytes32",
          "name": "role",
          "type": "bytes32"
        },
        {
          "indexed": true,
          "internalType": "bytes32",
          "name": "previousAdminRole",
          "type": "bytes32"
        },
        {
          "indexed": true,
          "internalType": "bytes32",
          "name": "newAdminRole",
          "type": "bytes32"
        }
      ],
      "name": "RoleAdminChanged",
      "type": "event"
    },
    {
      "anonymous": false,
      "inputs": [
        {
          "indexed": true,
          "internalType": "bytes32",
          "name": "role",
          "type": "bytes32"
        },
        {
          "indexed": true,
          "internalType": "address",
          "name": "account",
          "type": "address"
        },
        {
          "indexed": true,
          "internalType": "address",
          "name": "sender",
          "type": "address"
        }
      ],
      "name": "RoleGranted",
      "type": "event"
    },
    {
      "anonymous": false,
      "inputs": [
        {
          "indexed": true,
          "internalType": "bytes32",
          "name": "role",
          "type": "bytes32"
        },
        {
          "indexed": true,
          "internalType": "address",
          "name": "account",
          "type": "address"
        },
        {
          "indexed": true,
          "internalType": "address",
          "name": "sender",
          "type": "address"
        }
      ],
      "name": "RoleRevoked",
      "type": "event"
    },
    {
      "inputs": [],
      "name": "DEFAULT_ADMIN_ROLE",
      "outputs": [
        {
          "internalType": "bytes32",
          "name": "",
          "type": "bytes32"
        }
      ],
      "stateMutability": "view",
      "type": "function"
    },
    {
      "inputs": [],
      "name": "MINTER_ROLE",
      "outputs": [
        {
          "internalType": "bytes32",
          "name": "",
          "type": "bytes32"
        }
      ],
      "stateMutability": "view",
      "type": "function"
    },
    {
      "inputs": [
        {
          "internalType": "uint256",
          "name": "price",
          "type": "uint256"
        },
        {
          "internalType": "string",
          "name": "title",
          "type": "string"
        },
        {
          "internalType": "string",
          "name": "description",
          "type": "string"
        },
        {
          "internalType": "string",
          "name": "image",
          "type": "string"
        },
        {
          "internalType": "string",
          "name": "link",
          "type": "string"
        },
        {
          "internalType": "string",
          "name": "createTime",
          "type": "string"
        }
      ],
      "name": "addArticle",
      "outputs": [],
      "stateMutability": "nonpayable",
      "type": "function"
    },
    {
      "inputs": [
        {
          "internalType": "uint256",
          "name": "",
          "type": "uint256"
        }
      ],
      "name": "articleIds",
      "outputs": [
        {
          "internalType": "uint256",
          "name": "",
          "type": "uint256"
        }
      ],
      "stateMutability": "view",
      "type": "function"
    },
    {
      "inputs": [
        {
          "internalType": "uint256",
          "name": "",
          "type": "uint256"
        }
      ],
      "name": "articles",
      "outputs": [
        {
          "internalType": "uint256",
          "name": "id",
          "type": "uint256"
        },
        {
          "internalType": "uint256",
          "name": "price",
          "type": "uint256"
        },
        {
          "internalType": "string",
          "name": "title",
          "type": "string"
        },
        {
          "internalType": "string",
          "name": "description",
          "type": "string"
        },
        {
          "internalType": "string",
          "name": "image",
          "type": "string"
        },
        {
          "internalType": "string",
          "name": "link",
          "type": "string"
        },
        {
          "internalType": "string",
          "name": "createTime",
          "type": "string"
        }
      ],
      "stateMutability": "view",
      "type": "function"
    },
    {
      "inputs": [],
      "name": "clearAllPurchase",
      "outputs": [],
      "stateMutability": "nonpayable",
      "type": "function"
    },
    {
      "inputs": [],
      "name": "clearArticles",
      "outputs": [],
      "stateMutability": "nonpayable",
      "type": "function"
    },
    {
      "inputs": [],
      "name": "getAllArticles",
      "outputs": [
        {
          "components": [
            {
              "internalType": "uint256",
              "name": "id",
              "type": "uint256"
            },
            {
              "internalType": "uint256",
              "name": "price",
              "type": "uint256"
            },
            {
              "internalType": "string",
              "name": "title",
              "type": "string"
            },
            {
              "internalType": "string",
              "name": "description",
              "type": "string"
            },
            {
              "internalType": "string",
              "name": "image",
              "type": "string"
            },
            {
              "internalType": "string",
              "name": "link",
              "type": "string"
            },
            {
              "internalType": "string",
              "name": "createTime",
              "type": "string"
            }
          ],
          "internalType": "struct BlogShop.Article[]",
          "name": "",
          "type": "tuple[]"
        }
      ],
      "stateMutability": "view",
      "type": "function"
    },
    {
      "inputs": [],
      "name": "getAllPurchases",
      "outputs": [
        {
          "components": [
            {
              "internalType": "uint256",
              "name": "purchaseId",
              "type": "uint256"
            },
            {
              "internalType": "address",
              "name": "buyer",
              "type": "address"
            },
            {
              "internalType": "uint256",
              "name": "articleId",
              "type": "uint256"
            }
          ],
          "internalType": "struct BlogShop.Purchase[]",
          "name": "",
          "type": "tuple[]"
        }
      ],
      "stateMutability": "view",
      "type": "function"
    },
    {
      "inputs": [],
      "name": "getArticleCount",
      "outputs": [
        {
          "internalType": "uint256",
          "name": "",
          "type": "uint256"
        }
      ],
      "stateMutability": "view",
      "type": "function"
    },
    {
      "inputs": [],
      "name": "getArticleItemsForBuy",
      "outputs": [
        {
          "components": [
            {
              "components": [
                {
                  "internalType": "uint256",
                  "name": "id",
                  "type": "uint256"
                },
                {
                  "internalType": "uint256",
                  "name": "price",
                  "type": "uint256"
                },
                {
                  "internalType": "string",
                  "name": "title",
                  "type": "string"
                },
                {
                  "internalType": "string",
                  "name": "description",
                  "type": "string"
                },
                {
                  "internalType": "string",
                  "name": "image",
                  "type": "string"
                },
                {
                  "internalType": "string",
                  "name": "link",
                  "type": "string"
                },
                {
                  "internalType": "string",
                  "name": "createTime",
                  "type": "string"
                }
              ],
              "internalType": "struct BlogShop.Article",
              "name": "article",
              "type": "tuple"
            },
            {
              "internalType": "uint256",
              "name": "count",
              "type": "uint256"
            },
            {
              "internalType": "bool",
              "name": "isBought",
              "type": "bool"
            }
          ],
          "internalType": "struct BlogShop.PurchasedListItem[]",
          "name": "",
          "type": "tuple[]"
        }
      ],
      "stateMutability": "view",
      "type": "function"
    },
    {
      "inputs": [],
      "name": "getContractETH",
      "outputs": [
        {
          "internalType": "uint256",
          "name": "",
          "type": "uint256"
        }
      ],
      "stateMutability": "view",
      "type": "function"
    },
    {
      "inputs": [],
      "name": "getContractJT",
      "outputs": [
        {
          "internalType": "uint256",
          "name": "",
          "type": "uint256"
        }
      ],
      "stateMutability": "view",
      "type": "function"
    },
    {
      "inputs": [
        {
          "internalType": "address",
          "name": "buyer",
          "type": "address"
        }
      ],
      "name": "getPUrchaseByBuyer",
      "outputs": [
        {
          "components": [
            {
              "internalType": "uint256",
              "name": "purchaseId",
              "type": "uint256"
            },
            {
              "internalType": "address",
              "name": "buyer",
              "type": "address"
            },
            {
              "internalType": "uint256",
              "name": "articleId",
              "type": "uint256"
            }
          ],
          "internalType": "struct BlogShop.Purchase[]",
          "name": "",
          "type": "tuple[]"
        }
      ],
      "stateMutability": "view",
      "type": "function"
    },
    {
      "inputs": [],
      "name": "getPurchaseCount",
      "outputs": [
        {
          "internalType": "uint256",
          "name": "",
          "type": "uint256"
        }
      ],
      "stateMutability": "view",
      "type": "function"
    },
    {
      "inputs": [
        {
          "internalType": "bytes32",
          "name": "role",
          "type": "bytes32"
        }
      ],
      "name": "getRoleAdmin",
      "outputs": [
        {
          "internalType": "bytes32",
          "name": "",
          "type": "bytes32"
        }
      ],
      "stateMutability": "view",
      "type": "function"
    },
    {
      "inputs": [
        {
          "internalType": "bytes32",
          "name": "role",
          "type": "bytes32"
        },
        {
          "internalType": "address",
          "name": "account",
          "type": "address"
        }
      ],
      "name": "grantRole",
      "outputs": [],
      "stateMutability": "nonpayable",
      "type": "function"
    },
    {
      "inputs": [
        {
          "internalType": "bytes32",
          "name": "role",
          "type": "bytes32"
        },
        {
          "internalType": "address",
          "name": "account",
          "type": "address"
        }
      ],
      "name": "hasRole",
      "outputs": [
        {
          "internalType": "bool",
          "name": "",
          "type": "bool"
        }
      ],
      "stateMutability": "view",
      "type": "function"
    },
    {
      "inputs": [],
      "name": "nextArticleId",
      "outputs": [
        {
          "internalType": "uint256",
          "name": "",
          "type": "uint256"
        }
      ],
      "stateMutability": "view",
      "type": "function"
    },
    {
      "inputs": [],
      "name": "owner",
      "outputs": [
        {
          "internalType": "address",
          "name": "",
          "type": "address"
        }
      ],
      "stateMutability": "view",
      "type": "function"
    },
    {
      "inputs": [
        {
          "internalType": "uint256",
          "name": "articleId",
          "type": "uint256"
        }
      ],
      "name": "purchaseArticle",
      "outputs": [],
      "stateMutability": "nonpayable",
      "type": "function"
    },
    {
      "inputs": [
        {
          "internalType": "uint256",
          "name": "",
          "type": "uint256"
        }
      ],
      "name": "purchaseCount",
      "outputs": [
        {
          "internalType": "uint256",
          "name": "",
          "type": "uint256"
        }
      ],
      "stateMutability": "view",
      "type": "function"
    },
    {
      "inputs": [
        {
          "internalType": "uint256",
          "name": "",
          "type": "uint256"
        }
      ],
      "name": "purchaseIds",
      "outputs": [
        {
          "internalType": "uint256",
          "name": "",
          "type": "uint256"
        }
      ],
      "stateMutability": "view",
      "type": "function"
    },
    {
      "inputs": [
        {
          "internalType": "uint256",
          "name": "",
          "type": "uint256"
        }
      ],
      "name": "purchases",
      "outputs": [
        {
          "internalType": "uint256",
          "name": "purchaseId",
          "type": "uint256"
        },
        {
          "internalType": "address",
          "name": "buyer",
          "type": "address"
        },
        {
          "internalType": "uint256",
          "name": "articleId",
          "type": "uint256"
        }
      ],
      "stateMutability": "view",
      "type": "function"
    },
    {
      "inputs": [
        {
          "internalType": "uint256",
          "name": "articleId",
          "type": "uint256"
        }
      ],
      "name": "removeArticle",
      "outputs": [
        {
          "internalType": "bool",
          "name": "",
          "type": "bool"
        }
      ],
      "stateMutability": "nonpayable",
      "type": "function"
    },
    {
      "inputs": [
        {
          "internalType": "bytes32",
          "name": "role",
          "type": "bytes32"
        },
        {
          "internalType": "address",
          "name": "callerConfirmation",
          "type": "address"
        }
      ],
      "name": "renounceRole",
      "outputs": [],
      "stateMutability": "nonpayable",
      "type": "function"
    },
    {
      "inputs": [
        {
          "internalType": "bytes32",
          "name": "role",
          "type": "bytes32"
        },
        {
          "internalType": "address",
          "name": "account",
          "type": "address"
        }
      ],
      "name": "revokeRole",
      "outputs": [],
      "stateMutability": "nonpayable",
      "type": "function"
    },
    {
      "inputs": [
        {
          "internalType": "uint256",
          "name": "articleId",
          "type": "uint256"
        },
        {
          "internalType": "string",
          "name": "description",
          "type": "string"
        }
      ],
      "name": "setDescription",
      "outputs": [
        {
          "internalType": "bool",
          "name": "",
          "type": "bool"
        }
      ],
      "stateMutability": "nonpayable",
      "type": "function"
    },
    {
      "inputs": [
        {
          "internalType": "uint256",
          "name": "articleId",
          "type": "uint256"
        },
        {
          "internalType": "string",
          "name": "link",
          "type": "string"
        }
      ],
      "name": "setLink",
      "outputs": [
        {
          "internalType": "bool",
          "name": "",
          "type": "bool"
        }
      ],
      "stateMutability": "nonpayable",
      "type": "function"
    },
    {
      "inputs": [
        {
          "internalType": "uint256",
          "name": "articleId",
          "type": "uint256"
        },
        {
          "internalType": "uint256",
          "name": "price",
          "type": "uint256"
        }
      ],
      "name": "setPrice",
      "outputs": [
        {
          "internalType": "bool",
          "name": "",
          "type": "bool"
        }
      ],
      "stateMutability": "nonpayable",
      "type": "function"
    },
    {
      "inputs": [
        {
          "internalType": "uint256",
          "name": "articleId",
          "type": "uint256"
        },
        {
          "internalType": "string",
          "name": "title",
          "type": "string"
        }
      ],
      "name": "setTitle",
      "outputs": [
        {
          "internalType": "bool",
          "name": "",
          "type": "bool"
        }
      ],
      "stateMutability": "nonpayable",
      "type": "function"
    },
    {
      "inputs": [
        {
          "internalType": "bytes4",
          "name": "interfaceId",
          "type": "bytes4"
        }
      ],
      "name": "supportsInterface",
      "outputs": [
        {
          "internalType": "bool",
          "name": "",
          "type": "bool"
        }
      ],
      "stateMutability": "view",
      "type": "function"
    },
    {
      "inputs": [],
      "name": "tokenAddress",
      "outputs": [
        {
          "internalType": "contract JTCoin",
          "name": "",
          "type": "address"
        }
      ],
      "stateMutability": "view",
      "type": "function"
    },
    {
      "inputs": [],
      "name": "withdrawETH",
      "outputs": [],
      "stateMutability": "nonpayable",
      "type": "function"
    },
    {
      "inputs": [],
      "name": "withdrawJT",
      "outputs": [],
      "stateMutability": "nonpayable",
      "type": "function"
    }
  ],
  "bytecode": "0x60a060405260016003556001600655348015610019575f5ffd5b50604051613bc1380380613bc183398101604081905261003891610135565b6001600160a01b038116608052600180546001600160a01b03191633908117909155610085907f9f2df0fed2c77648de5860a4cc508cd0818c85b8b8a1ab4ceeef8d981c8956a69061008c565b5050610162565b5f828152602081815260408083206001600160a01b038516845290915281205460ff1661012c575f838152602081815260408083206001600160a01b03861684529091529020805460ff191660011790556100e43390565b6001600160a01b0316826001600160a01b0316847f2f8788117e7eff1d82e926ec794901d17c78024a50270940304540a733656f0d60405160405180910390a450600161012f565b505f5b92915050565b5f60208284031215610145575f5ffd5b81516001600160a01b038116811461015b575f5ffd5b9392505050565b608051613a2461019d5f395f81816103ee01528181610e13015281816120350152818161210a015281816121ee015261279a0152613a245ff3fe608060405234801561000f575f5ffd5b5060043610610208575f3560e01c80638da5cb5b1161011f578063cf4e3aca116100a9578063d65fb16011610079578063d65fb160146104a6578063e086e5ec146104b9578063e899d5ff146104c1578063edcfafe6146104c9578063f7d97577146104ef575f5ffd5b8063cf4e3aca14610464578063d511102d14610477578063d53913931461047f578063d547741f14610493575f5ffd5b8063aa8a45dc116100ef578063aa8a45dc14610417578063ac4f861a1461042c578063b44d310b1461043f578063b5239bbe14610454578063becd283f1461045c575f5ffd5b80638da5cb5b146103ab57806391d14854146103d65780639d76ea58146103e9578063a217fddf14610410575f5ffd5b8063394e858b116101a05780637e28ee18116101705780637e28ee18146103275780638258cbbd1461033a5780638392fe311461034057806384134d221461039a57806385c3ab54146103a2575f5ffd5b8063394e858b146102e4578063481fc1b01461030457806350b3967d1461030c5780635102bc9d14610314575f5ffd5b80632de6f5b5116101db5780632de6f5b51461028a5780632f2ff15d1461029d5780633319fe66146102b257806336568abe146102d1575f5ffd5b806301ffc9a71461020c5780630aa2f02b14610234578063248a9ca3146102475780632a6446ca14610277575b5f5ffd5b61021f61021a3660046132b7565b610502565b60405190151581526020015b60405180910390f35b61021f610242366004613382565b610538565b6102696102553660046133c5565b5f9081526020819052604090206001015490565b60405190815260200161022b565b61021f610285366004613382565b6108a3565b6102696102983660046133c5565b610bf9565b6102b06102ab3660046133f7565b610c18565b005b6102696102c03660046133c5565b60086020525f908152604090205481565b6102b06102df3660046133f7565b610c42565b6102f76102f2366004613421565b610c7a565b60405161022b919061343a565b6102b0610dda565b6102f7610f01565b61021f610322366004613382565b611013565b61021f6103353660046133c5565b61136a565b47610269565b61037761034e3660046133c5565b60056020525f908152604090208054600182015460029092015490916001600160a01b03169083565b604080519384526001600160a01b0390921660208401529082015260600161022b565b6102b0611753565b61026960035481565b6001546103be906001600160a01b031681565b6040516001600160a01b03909116815260200161022b565b61021f6103e43660046133f7565b611836565b6103be7f000000000000000000000000000000000000000000000000000000000000000081565b6102695f81565b61041f61185e565b60405161022b9190613564565b6102b061043a3660046133c5565b611cf4565b6104476123a7565b60405161022b91906135e9565b610269612783565b600754610269565b6102b0610472366004613640565b612810565b6102b061297c565b6102695f5160206139cf5f395f51905f5281565b6102b06104a13660046133f7565b612a03565b6102696104b43660046133c5565b612a27565b6102b0612a36565b600454610269565b6104dc6104d73660046133c5565b612a83565b60405161022b9796959493929190613726565b61021f6104fd3660046137a0565b612d5d565b5f6001600160e01b03198216637965db0b60e01b148061053257506301ffc9a760e01b6001600160e01b03198316145b92915050565b5f5f5160206139cf5f395f51905f52610550816130b6565b5f60025f8681526020019081526020015f206040518060e00160405290815f820154815260200160018201548152602001600282018054610590906137c0565b80601f01602080910402602001604051908101604052809291908181526020018280546105bc906137c0565b80156106075780601f106105de57610100808354040283529160200191610607565b820191905f5260205f20905b8154815290600101906020018083116105ea57829003601f168201915b50505050508152602001600382018054610620906137c0565b80601f016020809104026020016040519081016040528092919081815260200182805461064c906137c0565b80156106975780601f1061066e57610100808354040283529160200191610697565b820191905f5260205f20905b81548152906001019060200180831161067a57829003601f168201915b505050505081526020016004820180546106b0906137c0565b80601f01602080910402602001604051908101604052809291908181526020018280546106dc906137c0565b80156107275780601f106106fe57610100808354040283529160200191610727565b820191905f5260205f20905b81548152906001019060200180831161070a57829003601f168201915b50505050508152602001600582018054610740906137c0565b80601f016020809104026020016040519081016040528092919081815260200182805461076c906137c0565b80156107b75780601f1061078e576101008083540402835291602001916107b7565b820191905f5260205f20905b81548152906001019060200180831161079a57829003601f168201915b505050505081526020016006820180546107d0906137c0565b80601f01602080910402602001604051908101604052809291908181526020018280546107fc906137c0565b80156108475780601f1061081e57610100808354040283529160200191610847565b820191905f5260205f20905b81548152906001019060200180831161082a57829003601f168201915b5050505050815250509050805f01515f0361087d5760405162461bcd60e51b8152600401610874906137f2565b60405180910390fd5b5f8581526002602052604090206005016108978582613874565b50600195945050505050565b5f5f5160206139cf5f395f51905f526108bb816130b6565b5f60025f8681526020019081526020015f206040518060e00160405290815f8201548152602001600182015481526020016002820180546108fb906137c0565b80601f0160208091040260200160405190810160405280929190818152602001828054610927906137c0565b80156109725780601f1061094957610100808354040283529160200191610972565b820191905f5260205f20905b81548152906001019060200180831161095557829003601f168201915b5050505050815260200160038201805461098b906137c0565b80601f01602080910402602001604051908101604052809291908181526020018280546109b7906137c0565b8015610a025780601f106109d957610100808354040283529160200191610a02565b820191905f5260205f20905b8154815290600101906020018083116109e557829003601f168201915b50505050508152602001600482018054610a1b906137c0565b80601f0160208091040260200160405190810160405280929190818152602001828054610a47906137c0565b8015610a925780601f10610a6957610100808354040283529160200191610a92565b820191905f5260205f20905b815481529060010190602001808311610a7557829003601f168201915b50505050508152602001600582018054610aab906137c0565b80601f0160208091040260200160405190810160405280929190818152602001828054610ad7906137c0565b8015610b225780601f10610af957610100808354040283529160200191610b22565b820191905f5260205f20905b815481529060010190602001808311610b0557829003601f168201915b50505050508152602001600682018054610b3b906137c0565b80601f0160208091040260200160405190810160405280929190818152602001828054610b67906137c0565b8015610bb25780601f10610b8957610100808354040283529160200191610bb2565b820191905f5260205f20905b815481529060010190602001808311610b9557829003601f168201915b5050505050815250509050805f01515f03610bdf5760405162461bcd60e51b8152600401610874906137f2565b5f8581526002602052604090206003016108978582613874565b60048181548110610c08575f80fd5b5f91825260209091200154905081565b5f82815260208190526040902060010154610c32816130b6565b610c3c83836130c0565b50505050565b6001600160a01b0381163314610c6b5760405163334bd91960e11b815260040160405180910390fd5b610c75828261314f565b505050565b6007546060905f906001600160401b03811115610c9957610c996132e5565b604051908082528060200260200182016040528015610cf457816020015b610ce160405180606001604052805f81526020015f6001600160a01b031681526020015f81525090565b815260200190600190039081610cb75790505b5090505f5b600754811015610dd357836001600160a01b031660055f60078481548110610d2357610d2361392e565b5f91825260208083209091015483528201929092526040019020600101546001600160a01b031603610dcb5760055f60078381548110610d6557610d6561392e565b5f9182526020808320909101548352828101939093526040918201902081516060810183528154815260018201546001600160a01b03169381019390935260020154908201528251839083908110610dbf57610dbf61392e565b60200260200101819052505b600101610cf9565b5092915050565b5f5160206139cf5f395f51905f52610df1816130b6565b6001546040516370a0823160e01b815230600482018190526001600160a01b037f00000000000000000000000000000000000000000000000000000000000000008116936323b872dd9391169084906370a0823190602401602060405180830381865afa158015610e64573d5f5f3e3d5ffd5b505050506040513d601f19601f82011682018060405250810190610e889190613942565b6040516001600160e01b031960e086901b1681526001600160a01b03938416600482015292909116602483015260448201526064016020604051808303815f875af1158015610ed9573d5f5f3e3d5ffd5b505050506040513d601f19601f82011682018060405250810190610efd9190613959565b5050565b6007546060905f906001600160401b03811115610f2057610f206132e5565b604051908082528060200260200182016040528015610f7b57816020015b610f6860405180606001604052805f81526020015f6001600160a01b031681526020015f81525090565b815260200190600190039081610f3e5790505b5090505f5b60075481101561100d5760055f60078381548110610fa057610fa061392e565b5f9182526020808320909101548352828101939093526040918201902081516060810183528154815260018201546001600160a01b03169381019390935260020154908201528251839083908110610ffa57610ffa61392e565b6020908102919091010152600101610f80565b50919050565b5f5f5160206139cf5f395f51905f5261102b816130b6565b5f60025f8681526020019081526020015f206040518060e00160405290815f82015481526020016001820154815260200160028201805461106b906137c0565b80601f0160208091040260200160405190810160405280929190818152602001828054611097906137c0565b80156110e25780601f106110b9576101008083540402835291602001916110e2565b820191905f5260205f20905b8154815290600101906020018083116110c557829003601f168201915b505050505081526020016003820180546110fb906137c0565b80601f0160208091040260200160405190810160405280929190818152602001828054611127906137c0565b80156111725780601f1061114957610100808354040283529160200191611172565b820191905f5260205f20905b81548152906001019060200180831161115557829003601f168201915b5050505050815260200160048201805461118b906137c0565b80601f01602080910402602001604051908101604052809291908181526020018280546111b7906137c0565b80156112025780601f106111d957610100808354040283529160200191611202565b820191905f5260205f20905b8154815290600101906020018083116111e557829003601f168201915b5050505050815260200160058201805461121b906137c0565b80601f0160208091040260200160405190810160405280929190818152602001828054611247906137c0565b80156112925780601f1061126957610100808354040283529160200191611292565b820191905f5260205f20905b81548152906001019060200180831161127557829003601f168201915b505050505081526020016006820180546112ab906137c0565b80601f01602080910402602001604051908101604052809291908181526020018280546112d7906137c0565b80156113225780601f106112f957610100808354040283529160200191611322565b820191905f5260205f20905b81548152906001019060200180831161130557829003601f168201915b5050505050815250509050805f01515f0361134f5760405162461bcd60e51b8152600401610874906137f2565b5f858152600260208190526040909120016108978582613874565b5f5f5160206139cf5f395f51905f52611382816130b6565b5f60025f8581526020019081526020015f206040518060e00160405290815f8201548152602001600182015481526020016002820180546113c2906137c0565b80601f01602080910402602001604051908101604052809291908181526020018280546113ee906137c0565b80156114395780601f1061141057610100808354040283529160200191611439565b820191905f5260205f20905b81548152906001019060200180831161141c57829003601f168201915b50505050508152602001600382018054611452906137c0565b80601f016020809104026020016040519081016040528092919081815260200182805461147e906137c0565b80156114c95780601f106114a0576101008083540402835291602001916114c9565b820191905f5260205f20905b8154815290600101906020018083116114ac57829003601f168201915b505050505081526020016004820180546114e2906137c0565b80601f016020809104026020016040519081016040528092919081815260200182805461150e906137c0565b80156115595780601f1061153057610100808354040283529160200191611559565b820191905f5260205f20905b81548152906001019060200180831161153c57829003601f168201915b50505050508152602001600582018054611572906137c0565b80601f016020809104026020016040519081016040528092919081815260200182805461159e906137c0565b80156115e95780601f106115c0576101008083540402835291602001916115e9565b820191905f5260205f20905b8154815290600101906020018083116115cc57829003601f168201915b50505050508152602001600682018054611602906137c0565b80601f016020809104026020016040519081016040528092919081815260200182805461162e906137c0565b80156116795780601f1061165057610100808354040283529160200191611679565b820191905f5260205f20905b81548152906001019060200180831161165c57829003601f168201915b5050505050815250509050805f01515f036116a65760405162461bcd60e51b8152600401610874906137f2565b5f84815260026020819052604082208281556001810183905591906116cd908301826131f1565b6116da600383015f6131f1565b6116e7600483015f6131f1565b6116f4600583015f6131f1565b611701600683015f6131f1565b505083336001600160a01b03167f12f3e16ad874330a84c3a09c5aa9cf71a59f7d0c4b6a441c02b2e9cb5c4f27d583604001516040516117419190613978565b60405180910390a35060019392505050565b5f5160206139cf5f395f51905f5261176a816130b6565b5f5b6004548110156117fd5760025f6004838154811061178c5761178c61392e565b905f5260205f20015481526020019081526020015f205f5f82015f9055600182015f9055600282015f6117bf91906131f1565b6117cc600383015f6131f1565b6117d9600483015f6131f1565b6117e6600583015f6131f1565b6117f3600683015f6131f1565b505060010161176c565b5061180960045f613228565b60405133907f8f77e2ca50fed11ad8bdcdf5b4cb5c55f517dcadf16f0969f92324af3dea1dba905f90a250565b5f918252602082815260408084206001600160a01b0393909316845291905290205460ff1690565b6004546060905f906001600160401b0381111561187d5761187d6132e5565b6040519080825280602002602001820160405280156118b657816020015b6118a3613243565b81526020019060019003908161189b5790505b5090505f5b600454811015611c4c57604051806060016040528060025f600485815481106118e6576118e661392e565b905f5260205f20015481526020019081526020015f206040518060e00160405290815f82015481526020016001820154815260200160028201805461192a906137c0565b80601f0160208091040260200160405190810160405280929190818152602001828054611956906137c0565b80156119a15780601f10611978576101008083540402835291602001916119a1565b820191905f5260205f20905b81548152906001019060200180831161198457829003601f168201915b505050505081526020016003820180546119ba906137c0565b80601f01602080910402602001604051908101604052809291908181526020018280546119e6906137c0565b8015611a315780601f10611a0857610100808354040283529160200191611a31565b820191905f5260205f20905b815481529060010190602001808311611a1457829003601f168201915b50505050508152602001600482018054611a4a906137c0565b80601f0160208091040260200160405190810160405280929190818152602001828054611a76906137c0565b8015611ac15780601f10611a9857610100808354040283529160200191611ac1565b820191905f5260205f20905b815481529060010190602001808311611aa457829003601f168201915b50505050508152602001600582018054611ada906137c0565b80601f0160208091040260200160405190810160405280929190818152602001828054611b06906137c0565b8015611b515780601f10611b2857610100808354040283529160200191611b51565b820191905f5260205f20905b815481529060010190602001808311611b3457829003601f168201915b50505050508152602001600682018054611b6a906137c0565b80601f0160208091040260200160405190810160405280929190818152602001828054611b96906137c0565b8015611be15780601f10611bb857610100808354040283529160200191611be1565b820191905f5260205f20905b815481529060010190602001808311611bc457829003601f168201915b505050505081525050815260200160085f60048581548110611c0557611c0561392e565b905f5260205f20015481526020019081526020015f205481526020015f1515815250828281518110611c3957611c3961392e565b60209081029190910101526001016118bb565b505f611c5733610c7a565b90505f5b8151811015611cec575f5b8351811015611ce357828281518110611c8157611c8161392e565b602002602001015160400151848281518110611c9f57611c9f61392e565b60200260200101515f01515f015103611cdb576001848281518110611cc657611cc661392e565b60209081029190910101519015156040909101525b600101611c66565b50600101611c5b565b509092915050565b5f60025f8381526020019081526020015f206040518060e00160405290815f820154815260200160018201548152602001600282018054611d34906137c0565b80601f0160208091040260200160405190810160405280929190818152602001828054611d60906137c0565b8015611dab5780601f10611d8257610100808354040283529160200191611dab565b820191905f5260205f20905b815481529060010190602001808311611d8e57829003601f168201915b50505050508152602001600382018054611dc4906137c0565b80601f0160208091040260200160405190810160405280929190818152602001828054611df0906137c0565b8015611e3b5780601f10611e1257610100808354040283529160200191611e3b565b820191905f5260205f20905b815481529060010190602001808311611e1e57829003601f168201915b50505050508152602001600482018054611e54906137c0565b80601f0160208091040260200160405190810160405280929190818152602001828054611e80906137c0565b8015611ecb5780601f10611ea257610100808354040283529160200191611ecb565b820191905f5260205f20905b815481529060010190602001808311611eae57829003601f168201915b50505050508152602001600582018054611ee4906137c0565b80601f0160208091040260200160405190810160405280929190818152602001828054611f10906137c0565b8015611f5b5780601f10611f3257610100808354040283529160200191611f5b565b820191905f5260205f20905b815481529060010190602001808311611f3e57829003601f168201915b50505050508152602001600682018054611f74906137c0565b80601f0160208091040260200160405190810160405280929190818152602001828054611fa0906137c0565b8015611feb5780601f10611fc257610100808354040283529160200191611feb565b820191905f5260205f20905b815481529060010190602001808311611fce57829003601f168201915b5050505050815250509050805f01515f036120185760405162461bcd60e51b8152600401610874906137f2565b604051636eb1769f60e11b81523360048201523060248201525f907f00000000000000000000000000000000000000000000000000000000000000006001600160a01b03169063dd62ed3e90604401602060405180830381865afa158015612082573d5f5f3e3d5ffd5b505050506040513d601f19601f820116820180604052508101906120a69190613942565b905081602001518110156120f35760405162461bcd60e51b81526020600482015260146024820152730c2d8d8deeec2dcc6ca40dcdee840cadcdeeaced60631b6044820152606401610874565b6040516370a0823160e01b81523360048201525f907f00000000000000000000000000000000000000000000000000000000000000006001600160a01b0316906370a0823190602401602060405180830381865afa158015612157573d5f5f3e3d5ffd5b505050506040513d601f19601f8201168201806040525081019061217b9190613942565b905082602001518110156121c65760405162461bcd60e51b81526020600482015260126024820152710c4c2d8c2dcc6ca40dcdee840cadcdeeaced60731b6044820152606401610874565b60208301516040516323b872dd60e01b815233600482015230602482015260448101919091527f00000000000000000000000000000000000000000000000000000000000000006001600160a01b0316906323b872dd906064016020604051808303815f875af115801561223c573d5f5f3e3d5ffd5b505050506040513d601f19601f820116820180604052508101906122609190613959565b6122a25760405162461bcd60e51b81526020600482015260136024820152721d1c985b9cd9995c919c9bdb4819985a5b1959606a1b6044820152606401610874565b604080516060810182526006548082523360208084019182528385018981525f938452600582528584209451855591516001850180546001600160a01b0319166001600160a01b03909216919091179055905160029093019290925586815260089091529081208054916123158361398a565b909155505060a083015160405133917f3bf8c1a17dc1f549fafe76c9b4bb3ca4835128042747a6e92e3c6bf99ae7e1e5916123519188916139ae565b60405180910390a260068054600780546001810182555f9182527fa66cc928b5edb82af9bd49922954155ab7b0942694bea4ce44661d9a8736c6880182905590919061239c8361398a565b919050555050505050565b6004546060905f906001600160401b038111156123c6576123c66132e5565b60405190808252806020026020018201604052801561243557816020015b6124226040518060e001604052805f81526020015f815260200160608152602001606081526020016060815260200160608152602001606081525090565b8152602001906001900390816123e45790505b5090505f5b60045481101561100d5760025f6004838154811061245a5761245a61392e565b905f5260205f20015481526020019081526020015f206040518060e00160405290815f82015481526020016001820154815260200160028201805461249e906137c0565b80601f01602080910402602001604051908101604052809291908181526020018280546124ca906137c0565b80156125155780601f106124ec57610100808354040283529160200191612515565b820191905f5260205f20905b8154815290600101906020018083116124f857829003601f168201915b5050505050815260200160038201805461252e906137c0565b80601f016020809104026020016040519081016040528092919081815260200182805461255a906137c0565b80156125a55780601f1061257c576101008083540402835291602001916125a5565b820191905f5260205f20905b81548152906001019060200180831161258857829003601f168201915b505050505081526020016004820180546125be906137c0565b80601f01602080910402602001604051908101604052809291908181526020018280546125ea906137c0565b80156126355780601f1061260c57610100808354040283529160200191612635565b820191905f5260205f20905b81548152906001019060200180831161261857829003601f168201915b5050505050815260200160058201805461264e906137c0565b80601f016020809104026020016040519081016040528092919081815260200182805461267a906137c0565b80156126c55780601f1061269c576101008083540402835291602001916126c5565b820191905f5260205f20905b8154815290600101906020018083116126a857829003601f168201915b505050505081526020016006820180546126de906137c0565b80601f016020809104026020016040519081016040528092919081815260200182805461270a906137c0565b80156127555780601f1061272c57610100808354040283529160200191612755565b820191905f5260205f20905b81548152906001019060200180831161273857829003601f168201915b5050505050815250508282815181106127705761277061392e565b602090810291909101015260010161243a565b6040516370a0823160e01b81523060048201525f907f00000000000000000000000000000000000000000000000000000000000000006001600160a01b0316906370a0823190602401602060405180830381865afa1580156127e7573d5f5f3e3d5ffd5b505050506040513d601f19601f8201168201806040525081019061280b9190613942565b905090565b5f5160206139cf5f395f51905f52612827816130b6565b6040805160e08101825260035480825260208083018b81528385018b8152606085018b9052608085018a905260a0850189905260c085018890525f9384526002928390529490922083518155915160018301559251919283929082019061288e9082613874565b50606082015160038201906128a39082613874565b50608082015160048201906128b89082613874565b5060a082015160058201906128cd9082613874565b5060c082015160068201906128e29082613874565b50905050600354336001600160a01b03167f1639c55ef5751e93967738233e65f0b533e4f2eb0d18c8e435ed55dc61d87abc896040516129229190613978565b60405180910390a360038054600480546001810182555f9182527f8a35acfbc15ff81a39ae7d344fd709f28e8600b4aa8c65c6b64bfe7fe36bd19b0182905590919061296d8361398a565b91905055505050505050505050565b5f5160206139cf5f395f51905f52612993816130b6565b5f5b6007548110156129f45760055f600783815481106129b5576129b561392e565b5f91825260208083209091015483528201929092526040018120818155600180820180546001600160a01b031916905560029091019190915501612995565b50612a0060075f613228565b50565b5f82815260208190526040902060010154612a1d816130b6565b610c3c838361314f565b60078181548110610c08575f80fd5b5f5160206139cf5f395f51905f52612a4d816130b6565b6001546040516001600160a01b03909116904780156108fc02915f818181858888f19350505050158015610efd573d5f5f3e3d5ffd5b600260208190525f918252604090912080546001820154928201805491939291612aac906137c0565b80601f0160208091040260200160405190810160405280929190818152602001828054612ad8906137c0565b8015612b235780601f10612afa57610100808354040283529160200191612b23565b820191905f5260205f20905b815481529060010190602001808311612b0657829003601f168201915b505050505090806003018054612b38906137c0565b80601f0160208091040260200160405190810160405280929190818152602001828054612b64906137c0565b8015612baf5780601f10612b8657610100808354040283529160200191612baf565b820191905f5260205f20905b815481529060010190602001808311612b9257829003601f168201915b505050505090806004018054612bc4906137c0565b80601f0160208091040260200160405190810160405280929190818152602001828054612bf0906137c0565b8015612c3b5780601f10612c1257610100808354040283529160200191612c3b565b820191905f5260205f20905b815481529060010190602001808311612c1e57829003601f168201915b505050505090806005018054612c50906137c0565b80601f0160208091040260200160405190810160405280929190818152602001828054612c7c906137c0565b8015612cc75780601f10612c9e57610100808354040283529160200191612cc7565b820191905f5260205f20905b815481529060010190602001808311612caa57829003601f168201915b505050505090806006018054612cdc906137c0565b80601f0160208091040260200160405190810160405280929190818152602001828054612d08906137c0565b8015612d535780601f10612d2a57610100808354040283529160200191612d53565b820191905f5260205f20905b815481529060010190602001808311612d3657829003601f168201915b5050505050905087565b5f5f5160206139cf5f395f51905f52612d75816130b6565b5f60025f8681526020019081526020015f206040518060e00160405290815f820154815260200160018201548152602001600282018054612db5906137c0565b80601f0160208091040260200160405190810160405280929190818152602001828054612de1906137c0565b8015612e2c5780601f10612e0357610100808354040283529160200191612e2c565b820191905f5260205f20905b815481529060010190602001808311612e0f57829003601f168201915b50505050508152602001600382018054612e45906137c0565b80601f0160208091040260200160405190810160405280929190818152602001828054612e71906137c0565b8015612ebc5780601f10612e9357610100808354040283529160200191612ebc565b820191905f5260205f20905b815481529060010190602001808311612e9f57829003601f168201915b50505050508152602001600482018054612ed5906137c0565b80601f0160208091040260200160405190810160405280929190818152602001828054612f01906137c0565b8015612f4c5780601f10612f2357610100808354040283529160200191612f4c565b820191905f5260205f20905b815481529060010190602001808311612f2f57829003601f168201915b50505050508152602001600582018054612f65906137c0565b80601f0160208091040260200160405190810160405280929190818152602001828054612f91906137c0565b8015612fdc5780601f10612fb357610100808354040283529160200191612fdc565b820191905f5260205f20905b815481529060010190602001808311612fbf57829003601f168201915b50505050508152602001600682018054612ff5906137c0565b80601f0160208091040260200160405190810160405280929190818152602001828054613021906137c0565b801561306c5780601f106130435761010080835404028352916020019161306c565b820191905f5260205f20905b81548152906001019060200180831161304f57829003601f168201915b5050505050815250509050805f01515f036130995760405162461bcd60e51b8152600401610874906137f2565b5050505f9182526002602052604090912060019081019190915590565b612a0081336131b8565b5f6130cb8383611836565b613148575f838152602081815260408083206001600160a01b03861684529091529020805460ff191660011790556131003390565b6001600160a01b0316826001600160a01b0316847f2f8788117e7eff1d82e926ec794901d17c78024a50270940304540a733656f0d60405160405180910390a4506001610532565b505f610532565b5f61315a8383611836565b15613148575f838152602081815260408083206001600160a01b0386168085529252808320805460ff1916905551339286917ff6391f5c32d9c69d2a47ea670b442974b53935d1edc7fd64eb21e047a839171b9190a4506001610532565b6131c28282611836565b610efd5760405163e2517d3f60e01b81526001600160a01b038216600482015260248101839052604401610874565b5080546131fd906137c0565b5f825580601f1061320c575050565b601f0160209004905f5260205f2090810190612a00919061329f565b5080545f8255905f5260205f2090810190612a00919061329f565b604051806060016040528061328c6040518060e001604052805f81526020015f815260200160608152602001606081526020016060815260200160608152602001606081525090565b81525f6020820181905260409091015290565b5b808211156132b3575f81556001016132a0565b5090565b5f602082840312156132c7575f5ffd5b81356001600160e01b0319811681146132de575f5ffd5b9392505050565b634e487b7160e01b5f52604160045260245ffd5b5f82601f830112613308575f5ffd5b81356001600160401b03811115613321576133216132e5565b604051601f8201601f19908116603f011681016001600160401b038111828210171561334f5761334f6132e5565b604052818152838201602001851015613366575f5ffd5b816020850160208301375f918101602001919091529392505050565b5f5f60408385031215613393575f5ffd5b8235915060208301356001600160401b038111156133af575f5ffd5b6133bb858286016132f9565b9150509250929050565b5f602082840312156133d5575f5ffd5b5035919050565b80356001600160a01b03811681146133f2575f5ffd5b919050565b5f5f60408385031215613408575f5ffd5b82359150613418602084016133dc565b90509250929050565b5f60208284031215613431575f5ffd5b6132de826133dc565b602080825282518282018190525f918401906040840190835b81811015613493578351805184526020808201516001600160a01b0316818601526040918201519185019190915290930192606090920191600101613453565b509095945050505050565b5f81518084528060208401602086015e5f602082860101526020601f19601f83011685010191505092915050565b80518252602081015160208301525f604082015160e060408501526134f460e085018261349e565b90506060830151848203606086015261350d828261349e565b91505060808301518482036080860152613527828261349e565b91505060a083015184820360a0860152613541828261349e565b91505060c083015184820360c086015261355b828261349e565b95945050505050565b5f602082016020835280845180835260408501915060408160051b8601019250602086015f5b828110156135dd57603f1987860301845281518051606087526135b060608801826134cc565b6020838101518982015260409384015115159390980192909252509493840193919091019060010161358a565b50929695505050505050565b5f602082016020835280845180835260408501915060408160051b8601019250602086015f5b828110156135dd57603f1987860301845261362b8583516134cc565b9450602093840193919091019060010161360f565b5f5f5f5f5f5f60c08789031215613655575f5ffd5b8635955060208701356001600160401b03811115613671575f5ffd5b61367d89828a016132f9565b95505060408701356001600160401b03811115613698575f5ffd5b6136a489828a016132f9565b94505060608701356001600160401b038111156136bf575f5ffd5b6136cb89828a016132f9565b93505060808701356001600160401b038111156136e6575f5ffd5b6136f289828a016132f9565b92505060a08701356001600160401b0381111561370d575f5ffd5b61371989828a016132f9565b9150509295509295509295565b87815286602082015260e060408201525f61374460e083018861349e565b8281036060840152613756818861349e565b9050828103608084015261376a818761349e565b905082810360a084015261377e818661349e565b905082810360c0840152613792818561349e565b9a9950505050505050505050565b5f5f604083850312156137b1575f5ffd5b50508035926020909101359150565b600181811c908216806137d457607f821691505b60208210810361100d57634e487b7160e01b5f52602260045260245ffd5b60208082526017908201527f746869732061727469636c65206e6f7420657869737473000000000000000000604082015260600190565b601f821115610c7557805f5260205f20601f840160051c8101602085101561384e5750805b601f840160051c820191505b8181101561386d575f815560010161385a565b5050505050565b81516001600160401b0381111561388d5761388d6132e5565b6138a18161389b84546137c0565b84613829565b6020601f8211600181146138d3575f83156138bc5750848201515b5f19600385901b1c1916600184901b17845561386d565b5f84815260208120601f198516915b8281101561390257878501518255602094850194600190920191016138e2565b508482101561391f57868401515f19600387901b60f8161c191681555b50505050600190811b01905550565b634e487b7160e01b5f52603260045260245ffd5b5f60208284031215613952575f5ffd5b5051919050565b5f60208284031215613969575f5ffd5b815180151581146132de575f5ffd5b602081525f6132de602083018461349e565b5f600182016139a757634e487b7160e01b5f52601160045260245ffd5b5060010190565b828152604060208201525f6139c6604083018461349e565b94935050505056fe9f2df0fed2c77648de5860a4cc508cd0818c85b8b8a1ab4ceeef8d981c8956a6a2646970667358221220458109ad8fe4e819b40f6c0e01a97eb63314615776f6dbdd2e72eeedf1aafca364736f6c634300081c0033",
  "linkReferences": {},
  "deployedLinkReferences": {}
}